{
  "_format": "hh-sol-artifact-1",
  "contractName": "NFTCollection",
  "sourceName": "contracts/NFTCollection.sol",
  "abi": [
    {
      "inputs": [
        {
          "internalType": "string",
          "name": "_name",
          "type": "string"
        },
        {
          "internalType": "string",
          "name": "_symbol",
          "type": "string"
        },
        {
          "internalType": "string",
          "name": "_initBaseURI",
          "type": "string"
        },
        {
          "internalType": "uint256",
          "name": "_newCost",
          "type": "uint256"
        }
      ],
      "stateMutability": "nonpayable",
      "type": "constructor"
    },
    {
      "anonymous": false,
      "inputs": [
        {
          "indexed": true,
          "internalType": "address",
          "name": "owner",
          "type": "address"
        },
        {
          "indexed": true,
          "internalType": "address",
          "name": "approved",
          "type": "address"
        },
        {
          "indexed": true,
          "internalType": "uint256",
          "name": "tokenId",
          "type": "uint256"
        }
      ],
      "name": "Approval",
      "type": "event"
    },
    {
      "anonymous": false,
      "inputs": [
        {
          "indexed": true,
          "internalType": "address",
          "name": "owner",
          "type": "address"
        },
        {
          "indexed": true,
          "internalType": "address",
          "name": "operator",
          "type": "address"
        },
        {
          "indexed": false,
          "internalType": "bool",
          "name": "approved",
          "type": "bool"
        }
      ],
      "name": "ApprovalForAll",
      "type": "event"
    },
    {
      "anonymous": false,
      "inputs": [
        {
          "indexed": true,
          "internalType": "address",
          "name": "previousOwner",
          "type": "address"
        },
        {
          "indexed": true,
          "internalType": "address",
          "name": "newOwner",
          "type": "address"
        }
      ],
      "name": "OwnershipTransferred",
      "type": "event"
    },
    {
      "anonymous": false,
      "inputs": [
        {
          "indexed": false,
          "internalType": "uint256",
          "name": "tokenId",
          "type": "uint256"
        }
      ],
      "name": "TokenMinted",
      "type": "event"
    },
    {
      "anonymous": false,
      "inputs": [
        {
          "indexed": true,
          "internalType": "address",
          "name": "from",
          "type": "address"
        },
        {
          "indexed": true,
          "internalType": "address",
          "name": "to",
          "type": "address"
        },
        {
          "indexed": true,
          "internalType": "uint256",
          "name": "tokenId",
          "type": "uint256"
        }
      ],
      "name": "Transfer",
      "type": "event"
    },
    {
      "inputs": [],
      "name": "_tokenId",
      "outputs": [
        {
          "internalType": "uint256",
          "name": "_value",
          "type": "uint256"
        }
      ],
      "stateMutability": "view",
      "type": "function"
    },
    {
      "inputs": [
        {
          "internalType": "address",
          "name": "to",
          "type": "address"
        },
        {
          "internalType": "uint256",
          "name": "tokenId",
          "type": "uint256"
        }
      ],
      "name": "approve",
      "outputs": [],
      "stateMutability": "nonpayable",
      "type": "function"
    },
    {
      "inputs": [
        {
          "internalType": "address",
          "name": "owner",
          "type": "address"
        }
      ],
      "name": "balanceOf",
      "outputs": [
        {
          "internalType": "uint256",
          "name": "",
          "type": "uint256"
        }
      ],
      "stateMutability": "view",
      "type": "function"
    },
    {
      "inputs": [],
      "name": "baseExtension",
      "outputs": [
        {
          "internalType": "string",
          "name": "",
          "type": "string"
        }
      ],
      "stateMutability": "view",
      "type": "function"
    },
    {
      "inputs": [],
      "name": "cost",
      "outputs": [
        {
          "internalType": "uint256",
          "name": "",
          "type": "uint256"
        }
      ],
      "stateMutability": "view",
      "type": "function"
    },
    {
      "inputs": [
        {
          "internalType": "uint256",
          "name": "tokenId",
          "type": "uint256"
        }
      ],
      "name": "getApproved",
      "outputs": [
        {
          "internalType": "address",
          "name": "",
          "type": "address"
        }
      ],
      "stateMutability": "view",
      "type": "function"
    },
    {
      "inputs": [
        {
          "internalType": "address",
          "name": "owner",
          "type": "address"
        },
        {
          "internalType": "address",
          "name": "operator",
          "type": "address"
        }
      ],
      "name": "isApprovedForAll",
      "outputs": [
        {
          "internalType": "bool",
          "name": "",
          "type": "bool"
        }
      ],
      "stateMutability": "view",
      "type": "function"
    },
    {
      "inputs": [],
      "name": "maxSupply",
      "outputs": [
        {
          "internalType": "uint256",
          "name": "",
          "type": "uint256"
        }
      ],
      "stateMutability": "pure",
      "type": "function"
    },
    {
      "inputs": [
        {
          "internalType": "address",
          "name": "to",
          "type": "address"
        },
        {
          "internalType": "uint256",
          "name": "amount",
          "type": "uint256"
        }
      ],
      "name": "mint",
      "outputs": [],
      "stateMutability": "payable",
      "type": "function"
    },
    {
      "inputs": [],
      "name": "name",
      "outputs": [
        {
          "internalType": "string",
          "name": "",
          "type": "string"
        }
      ],
      "stateMutability": "view",
      "type": "function"
    },
    {
      "inputs": [],
      "name": "owner",
      "outputs": [
        {
          "internalType": "address",
          "name": "",
          "type": "address"
        }
      ],
      "stateMutability": "view",
      "type": "function"
    },
    {
      "inputs": [
        {
          "internalType": "uint256",
          "name": "tokenId",
          "type": "uint256"
        }
      ],
      "name": "ownerOf",
      "outputs": [
        {
          "internalType": "address",
          "name": "",
          "type": "address"
        }
      ],
      "stateMutability": "view",
      "type": "function"
    },
    {
      "inputs": [],
      "name": "renounceOwnership",
      "outputs": [],
      "stateMutability": "nonpayable",
      "type": "function"
    },
    {
      "inputs": [
        {
          "internalType": "address",
          "name": "from",
          "type": "address"
        },
        {
          "internalType": "address",
          "name": "to",
          "type": "address"
        },
        {
          "internalType": "uint256",
          "name": "tokenId",
          "type": "uint256"
        }
      ],
      "name": "safeTransferFrom",
      "outputs": [],
      "stateMutability": "nonpayable",
      "type": "function"
    },
    {
      "inputs": [
        {
          "internalType": "address",
          "name": "from",
          "type": "address"
        },
        {
          "internalType": "address",
          "name": "to",
          "type": "address"
        },
        {
          "internalType": "uint256",
          "name": "tokenId",
          "type": "uint256"
        },
        {
          "internalType": "bytes",
          "name": "_data",
          "type": "bytes"
        }
      ],
      "name": "safeTransferFrom",
      "outputs": [],
      "stateMutability": "nonpayable",
      "type": "function"
    },
    {
      "inputs": [
        {
          "internalType": "address",
          "name": "operator",
          "type": "address"
        },
        {
          "internalType": "bool",
          "name": "approved",
          "type": "bool"
        }
      ],
      "name": "setApprovalForAll",
      "outputs": [],
      "stateMutability": "nonpayable",
      "type": "function"
    },
    {
      "inputs": [
        {
          "internalType": "string",
          "name": "_newBaseExtension",
          "type": "string"
        }
      ],
      "name": "setBaseExtension",
      "outputs": [],
      "stateMutability": "nonpayable",
      "type": "function"
    },
    {
      "inputs": [
        {
          "internalType": "string",
          "name": "_newBaseURI",
          "type": "string"
        }
      ],
      "name": "setBaseURI",
      "outputs": [],
      "stateMutability": "nonpayable",
      "type": "function"
    },
    {
      "inputs": [
        {
          "internalType": "uint256",
          "name": "newCost",
          "type": "uint256"
        }
      ],
      "name": "setCost",
      "outputs": [],
      "stateMutability": "nonpayable",
      "type": "function"
    },
    {
      "inputs": [
        {
          "internalType": "bytes4",
          "name": "interfaceId",
          "type": "bytes4"
        }
      ],
      "name": "supportsInterface",
      "outputs": [
        {
          "internalType": "bool",
          "name": "",
          "type": "bool"
        }
      ],
      "stateMutability": "view",
      "type": "function"
    },
    {
      "inputs": [],
      "name": "symbol",
      "outputs": [
        {
          "internalType": "string",
          "name": "",
          "type": "string"
        }
      ],
      "stateMutability": "view",
      "type": "function"
    },
    {
      "inputs": [
        {
          "internalType": "uint256",
          "name": "index",
          "type": "uint256"
        }
      ],
      "name": "tokenByIndex",
      "outputs": [
        {
          "internalType": "uint256",
          "name": "",
          "type": "uint256"
        }
      ],
      "stateMutability": "view",
      "type": "function"
    },
    {
      "inputs": [
        {
          "internalType": "address",
          "name": "owner",
          "type": "address"
        },
        {
          "internalType": "uint256",
          "name": "index",
          "type": "uint256"
        }
      ],
      "name": "tokenOfOwnerByIndex",
      "outputs": [
        {
          "internalType": "uint256",
          "name": "",
          "type": "uint256"
        }
      ],
      "stateMutability": "view",
      "type": "function"
    },
    {
      "inputs": [
        {
          "internalType": "uint256",
          "name": "tokenId",
          "type": "uint256"
        }
      ],
      "name": "tokenURI",
      "outputs": [
        {
          "internalType": "string",
          "name": "",
          "type": "string"
        }
      ],
      "stateMutability": "view",
      "type": "function"
    },
    {
      "inputs": [
        {
          "internalType": "uint256",
          "name": "",
          "type": "uint256"
        }
      ],
      "name": "tokens",
      "outputs": [
        {
          "internalType": "uint256",
          "name": "tokenId",
          "type": "uint256"
        },
        {
          "internalType": "address",
          "name": "owner",
          "type": "address"
        }
      ],
      "stateMutability": "view",
      "type": "function"
    },
    {
      "inputs": [],
      "name": "totalSupply",
      "outputs": [
        {
          "internalType": "uint256",
          "name": "",
          "type": "uint256"
        }
      ],
      "stateMutability": "view",
      "type": "function"
    },
    {
      "inputs": [
        {
          "internalType": "address",
          "name": "from",
          "type": "address"
        },
        {
          "internalType": "address",
          "name": "to",
          "type": "address"
        },
        {
          "internalType": "uint256",
          "name": "tokenId",
          "type": "uint256"
        }
      ],
      "name": "transferFrom",
      "outputs": [],
      "stateMutability": "nonpayable",
      "type": "function"
    },
    {
      "inputs": [
        {
          "internalType": "address",
          "name": "newOwner",
          "type": "address"
        }
      ],
      "name": "transferOwnership",
      "outputs": [],
      "stateMutability": "nonpayable",
      "type": "function"
    },
    {
      "inputs": [
        {
          "internalType": "address",
          "name": "_owner",
          "type": "address"
        }
      ],
      "name": "walletOfOwner",
      "outputs": [
        {
          "internalType": "uint256[]",
          "name": "",
          "type": "uint256[]"
        }
      ],
      "stateMutability": "view",
      "type": "function"
    },
    {
      "inputs": [],
      "name": "withdraw",
      "outputs": [],
      "stateMutability": "nonpayable",
      "type": "function"
    }
  ],
  "bytecode": "0x60806040526040518060400160405280600581526020017f2e6a736f6e000000000000000000000000000000000000000000000000000000815250600e9080519060200190620000519291906200034b565b503480156200005f57600080fd5b506040516200495e3803806200495e8339818101604052810190620000859190620005d3565b838381600090805190602001906200009f9291906200034b565b508060019080519060200190620000b89291906200034b565b505050620000db620000cf6200010f60201b60201c565b6200011760201b60201c565b6001600b81905550620000f482620001dd60201b60201c565b62000105816200028860201b60201c565b505050506200078a565b600033905090565b6000600a60009054906101000a900473ffffffffffffffffffffffffffffffffffffffff16905081600a60006101000a81548173ffffffffffffffffffffffffffffffffffffffff021916908373ffffffffffffffffffffffffffffffffffffffff1602179055508173ffffffffffffffffffffffffffffffffffffffff168173ffffffffffffffffffffffffffffffffffffffff167f8be0079c531659141344cd1fd0a4f28419497f9722a3daafe3b4186f6b6457e060405160405180910390a35050565b620001ed6200010f60201b60201c565b73ffffffffffffffffffffffffffffffffffffffff16620002136200032160201b60201c565b73ffffffffffffffffffffffffffffffffffffffff16146200026c576040517f08c379a0000000000000000000000000000000000000000000000000000000008152600401620002639062000703565b60405180910390fd5b80600d9080519060200190620002849291906200034b565b5050565b620002986200010f60201b60201c565b73ffffffffffffffffffffffffffffffffffffffff16620002be6200032160201b60201c565b73ffffffffffffffffffffffffffffffffffffffff161462000317576040517f08c379a00000000000000000000000000000000000000000000000000000000081526004016200030e9062000703565b60405180910390fd5b80600f8190555050565b6000600a60009054906101000a900473ffffffffffffffffffffffffffffffffffffffff16905090565b828054620003599062000754565b90600052602060002090601f0160209004810192826200037d5760008555620003c9565b82601f106200039857805160ff1916838001178555620003c9565b82800160010185558215620003c9579182015b82811115620003c8578251825591602001919060010190620003ab565b5b509050620003d89190620003dc565b5090565b5b80821115620003f7576000816000905550600101620003dd565b5090565b6000604051905090565b600080fd5b600080fd5b600080fd5b600080fd5b6000601f19601f8301169050919050565b7f4e487b7100000000000000000000000000000000000000000000000000000000600052604160045260246000fd5b620004648262000419565b810181811067ffffffffffffffff821117156200048657620004856200042a565b5b80604052505050565b60006200049b620003fb565b9050620004a9828262000459565b919050565b600067ffffffffffffffff821115620004cc57620004cb6200042a565b5b620004d78262000419565b9050602081019050919050565b60005b8381101562000504578082015181840152602081019050620004e7565b8381111562000514576000848401525b50505050565b6000620005316200052b84620004ae565b6200048f565b90508281526020810184848401111562000550576200054f62000414565b5b6200055d848285620004e4565b509392505050565b600082601f8301126200057d576200057c6200040f565b5b81516200058f8482602086016200051a565b91505092915050565b6000819050919050565b620005ad8162000598565b8114620005b957600080fd5b50565b600081519050620005cd81620005a2565b92915050565b60008060008060808587031215620005f057620005ef62000405565b5b600085015167ffffffffffffffff8111156200061157620006106200040a565b5b6200061f8782880162000565565b945050602085015167ffffffffffffffff8111156200064357620006426200040a565b5b620006518782880162000565565b935050604085015167ffffffffffffffff8111156200067557620006746200040a565b5b620006838782880162000565565b92505060606200069687828801620005bc565b91505092959194509250565b600082825260208201905092915050565b7f4f776e61626c653a2063616c6c6572206973206e6f7420746865206f776e6572600082015250565b6000620006eb602083620006a2565b9150620006f882620006b3565b602082019050919050565b600060208201905081810360008301526200071e81620006dc565b9050919050565b7f4e487b7100000000000000000000000000000000000000000000000000000000600052602260045260246000fd5b600060028204905060018216806200076d57607f821691505b6020821081141562000784576200078362000725565b5b50919050565b6141c4806200079a6000396000f3fe6080604052600436106101cd5760003560e01c80634f6ccce7116100f7578063a22cb46511610095578063d5abeb0111610064578063d5abeb011461068e578063da3ef23f146106b9578063e985e9c5146106e2578063f2fde38b1461071f576101cd565b8063a22cb465146105d4578063b88d4fde146105fd578063c668286214610626578063c87b56dd14610651576101cd565b806370a08231116100d157806370a082311461052a578063715018a6146105675780638da5cb5b1461057e57806395d89b41146105a9576101cd565b80634f6ccce71461048757806355f804b3146104c45780636352211e146104ed576101cd565b8063248225141161016f57806342842e0e1161013e57806342842e0e146103ba578063438b6300146103e357806344a0d68a146104205780634f64b2be14610449576101cd565b8063248225141461031f5780632f745c591461034a5780633ccfd60b1461038757806340c10f191461039e576101cd565b8063095ea7b3116101ab578063095ea7b31461027757806313faede6146102a057806318160ddd146102cb57806323b872dd146102f6576101cd565b806301ffc9a7146101d257806306fdde031461020f578063081812fc1461023a575b600080fd5b3480156101de57600080fd5b506101f960048036038101906101f49190612ad8565b610748565b6040516102069190612b20565b60405180910390f35b34801561021b57600080fd5b506102246107c2565b6040516102319190612bd4565b60405180910390f35b34801561024657600080fd5b50610261600480360381019061025c9190612c2c565b610854565b60405161026e9190612c9a565b60405180910390f35b34801561028357600080fd5b5061029e60048036038101906102999190612ce1565b6108d9565b005b3480156102ac57600080fd5b506102b56109f1565b6040516102c29190612d30565b60405180910390f35b3480156102d757600080fd5b506102e06109fb565b6040516102ed9190612d30565b60405180910390f35b34801561030257600080fd5b5061031d60048036038101906103189190612d4b565b610a05565b005b34801561032b57600080fd5b50610334610a65565b6040516103419190612d30565b60405180910390f35b34801561035657600080fd5b50610371600480360381019061036c9190612ce1565b610a71565b60405161037e9190612d30565b60405180910390f35b34801561039357600080fd5b5061039c610b16565b005b6103b860048036038101906103b39190612ce1565b610bec565b005b3480156103c657600080fd5b506103e160048036038101906103dc9190612d4b565b610e77565b005b3480156103ef57600080fd5b5061040a60048036038101906104059190612d9e565b610e97565b6040516104179190612e89565b60405180910390f35b34801561042c57600080fd5b5061044760048036038101906104429190612c2c565b610f45565b005b34801561045557600080fd5b50610470600480360381019061046b9190612c2c565b610fcb565b60405161047e929190612eab565b60405180910390f35b34801561049357600080fd5b506104ae60048036038101906104a99190612c2c565b61100f565b6040516104bb9190612d30565b60405180910390f35b3480156104d057600080fd5b506104eb60048036038101906104e69190613009565b611080565b005b3480156104f957600080fd5b50610514600480360381019061050f9190612c2c565b611116565b6040516105219190612c9a565b60405180910390f35b34801561053657600080fd5b50610551600480360381019061054c9190612d9e565b6111c8565b60405161055e9190612d30565b60405180910390f35b34801561057357600080fd5b5061057c611280565b005b34801561058a57600080fd5b50610593611308565b6040516105a09190612c9a565b60405180910390f35b3480156105b557600080fd5b506105be611332565b6040516105cb9190612bd4565b60405180910390f35b3480156105e057600080fd5b506105fb60048036038101906105f6919061307e565b6113c4565b005b34801561060957600080fd5b50610624600480360381019061061f919061315f565b6113da565b005b34801561063257600080fd5b5061063b61143c565b6040516106489190612bd4565b60405180910390f35b34801561065d57600080fd5b5061067860048036038101906106739190612c2c565b6114ca565b6040516106859190612bd4565b60405180910390f35b34801561069a57600080fd5b506106a3611574565b6040516106b09190612d30565b60405180910390f35b3480156106c557600080fd5b506106e060048036038101906106db9190613009565b611585565b005b3480156106ee57600080fd5b50610709600480360381019061070491906131e2565b61161b565b6040516107169190612b20565b60405180910390f35b34801561072b57600080fd5b5061074660048036038101906107419190612d9e565b6116af565b005b60007f780e9d63000000000000000000000000000000000000000000000000000000007bffffffffffffffffffffffffffffffffffffffffffffffffffffffff1916827bffffffffffffffffffffffffffffffffffffffffffffffffffffffff191614806107bb57506107ba826117a7565b5b9050919050565b6060600080546107d190613251565b80601f01602080910402602001604051908101604052809291908181526020018280546107fd90613251565b801561084a5780601f1061081f5761010080835404028352916020019161084a565b820191906000526020600020905b81548152906001019060200180831161082d57829003601f168201915b5050505050905090565b600061085f82611889565b61089e576040517f08c379a0000000000000000000000000000000000000000000000000000000008152600401610895906132f5565b60405180910390fd5b6004600083815260200190815260200160002060009054906101000a900473ffffffffffffffffffffffffffffffffffffffff169050919050565b60006108e482611116565b90508073ffffffffffffffffffffffffffffffffffffffff168373ffffffffffffffffffffffffffffffffffffffff161415610955576040517f08c379a000000000000000000000000000000000000000000000000000000000815260040161094c90613387565b60405180910390fd5b8073ffffffffffffffffffffffffffffffffffffffff166109746118f5565b73ffffffffffffffffffffffffffffffffffffffff1614806109a357506109a28161099d6118f5565b61161b565b5b6109e2576040517f08c379a00000000000000000000000000000000000000000000000000000000081526004016109d990613419565b60405180910390fd5b6109ec83836118fd565b505050565b6000600f54905090565b6000601054905090565b610a16610a106118f5565b826119b6565b610a55576040517f08c379a0000000000000000000000000000000000000000000000000000000008152600401610a4c906134ab565b60405180910390fd5b610a60838383611a94565b505050565b600c8060000154905081565b6000610a7c836111c8565b8210610abd576040517f08c379a0000000000000000000000000000000000000000000000000000000008152600401610ab49061353d565b60405180910390fd5b600660008473ffffffffffffffffffffffffffffffffffffffff1673ffffffffffffffffffffffffffffffffffffffff168152602001908152602001600020600083815260200190815260200160002054905092915050565b6002600b541415610b5c576040517f08c379a0000000000000000000000000000000000000000000000000000000008152600401610b53906135a9565b60405180910390fd5b6002600b819055506000610b6e611308565b73ffffffffffffffffffffffffffffffffffffffff1647604051610b91906135fa565b60006040518083038185875af1925050503d8060008114610bce576040519150601f19603f3d011682016040523d82523d6000602084013e610bd3565b606091505b5050905080610be157600080fd5b506001600b81905550565b6002600b541415610c32576040517f08c379a0000000000000000000000000000000000000000000000000000000008152600401610c29906135a9565b60405180910390fd5b6002600b81905550610c44600c611cfb565b600f54341015610c89576040517f08c379a0000000000000000000000000000000000000000000000000000000008152600401610c809061365b565b60405180910390fd5b68027e60d44813f8000081601154610ca191906136aa565b1115610ce2576040517f08c379a0000000000000000000000000000000000000000000000000000000008152600401610cd99061374c565b60405180910390fd5b610cf781601054611d1190919063ffffffff16565b601081905550610d1281601154611d1190919063ffffffff16565b601181905550610d6a81601260008573ffffffffffffffffffffffffffffffffffffffff1673ffffffffffffffffffffffffffffffffffffffff16815260200190815260200160002054611d1190919063ffffffff16565b601260008473ffffffffffffffffffffffffffffffffffffffff1673ffffffffffffffffffffffffffffffffffffffff168152602001908152602001600020819055506000600190505b818111610e6a57610dc58382611d27565b60405180604001604052808281526020013373ffffffffffffffffffffffffffffffffffffffff16815250601360008381526020019081526020016000206000820151816000015560208201518160010160006101000a81548173ffffffffffffffffffffffffffffffffffffffff021916908373ffffffffffffffffffffffffffffffffffffffff1602179055509050508080610e629061376c565b915050610db4565b506001600b819055505050565b610e92838383604051806020016040528060008152506113da565b505050565b60606000610ea4836111c8565b905060008167ffffffffffffffff811115610ec257610ec1612ede565b5b604051908082528060200260200182016040528015610ef05781602001602082028036833780820191505090505b50905060005b82811015610f3a57610f088582610a71565b828281518110610f1b57610f1a6137b5565b5b6020026020010181815250508080610f329061376c565b915050610ef6565b508092505050919050565b610f4d6118f5565b73ffffffffffffffffffffffffffffffffffffffff16610f6b611308565b73ffffffffffffffffffffffffffffffffffffffff1614610fc1576040517f08c379a0000000000000000000000000000000000000000000000000000000008152600401610fb890613830565b60405180910390fd5b80600f8190555050565b60136020528060005260406000206000915090508060000154908060010160009054906101000a900473ffffffffffffffffffffffffffffffffffffffff16905082565b6000611019611f01565b821061105a576040517f08c379a0000000000000000000000000000000000000000000000000000000008152600401611051906138c2565b60405180910390fd5b6008828154811061106e5761106d6137b5565b5b90600052602060002001549050919050565b6110886118f5565b73ffffffffffffffffffffffffffffffffffffffff166110a6611308565b73ffffffffffffffffffffffffffffffffffffffff16146110fc576040517f08c379a00000000000000000000000000000000000000000000000000000000081526004016110f390613830565b60405180910390fd5b80600d90805190602001906111129291906129c9565b5050565b6000806002600084815260200190815260200160002060009054906101000a900473ffffffffffffffffffffffffffffffffffffffff169050600073ffffffffffffffffffffffffffffffffffffffff168173ffffffffffffffffffffffffffffffffffffffff1614156111bf576040517f08c379a00000000000000000000000000000000000000000000000000000000081526004016111b690613954565b60405180910390fd5b80915050919050565b60008073ffffffffffffffffffffffffffffffffffffffff168273ffffffffffffffffffffffffffffffffffffffff161415611239576040517f08c379a0000000000000000000000000000000000000000000000000000000008152600401611230906139e6565b60405180910390fd5b600360008373ffffffffffffffffffffffffffffffffffffffff1673ffffffffffffffffffffffffffffffffffffffff168152602001908152602001600020549050919050565b6112886118f5565b73ffffffffffffffffffffffffffffffffffffffff166112a6611308565b73ffffffffffffffffffffffffffffffffffffffff16146112fc576040517f08c379a00000000000000000000000000000000000000000000000000000000081526004016112f390613830565b60405180910390fd5b6113066000611f0e565b565b6000600a60009054906101000a900473ffffffffffffffffffffffffffffffffffffffff16905090565b60606001805461134190613251565b80601f016020809104026020016040519081016040528092919081815260200182805461136d90613251565b80156113ba5780601f1061138f576101008083540402835291602001916113ba565b820191906000526020600020905b81548152906001019060200180831161139d57829003601f168201915b5050505050905090565b6113d66113cf6118f5565b8383611fd4565b5050565b6113eb6113e56118f5565b836119b6565b61142a576040517f08c379a0000000000000000000000000000000000000000000000000000000008152600401611421906134ab565b60405180910390fd5b61143684848484612141565b50505050565b600e805461144990613251565b80601f016020809104026020016040519081016040528092919081815260200182805461147590613251565b80156114c25780601f10611497576101008083540402835291602001916114c2565b820191906000526020600020905b8154815290600101906020018083116114a557829003601f168201915b505050505081565b60606114d582611889565b611514576040517f08c379a000000000000000000000000000000000000000000000000000000000815260040161150b90613a78565b60405180910390fd5b600061151e61219d565b9050600081511161153e576040518060200160405280600081525061156c565b806115488461222f565b600e60405160200161155c93929190613b68565b6040516020818303038152906040525b915050919050565b600068027e60d44813f80000905090565b61158d6118f5565b73ffffffffffffffffffffffffffffffffffffffff166115ab611308565b73ffffffffffffffffffffffffffffffffffffffff1614611601576040517f08c379a00000000000000000000000000000000000000000000000000000000081526004016115f890613830565b60405180910390fd5b80600e90805190602001906116179291906129c9565b5050565b6000600560008473ffffffffffffffffffffffffffffffffffffffff1673ffffffffffffffffffffffffffffffffffffffff16815260200190815260200160002060008373ffffffffffffffffffffffffffffffffffffffff1673ffffffffffffffffffffffffffffffffffffffff16815260200190815260200160002060009054906101000a900460ff16905092915050565b6116b76118f5565b73ffffffffffffffffffffffffffffffffffffffff166116d5611308565b73ffffffffffffffffffffffffffffffffffffffff161461172b576040517f08c379a000000000000000000000000000000000000000000000000000000000815260040161172290613830565b60405180910390fd5b600073ffffffffffffffffffffffffffffffffffffffff168173ffffffffffffffffffffffffffffffffffffffff16141561179b576040517f08c379a000000000000000000000000000000000000000000000000000000000815260040161179290613c0b565b60405180910390fd5b6117a481611f0e565b50565b60007f80ac58cd000000000000000000000000000000000000000000000000000000007bffffffffffffffffffffffffffffffffffffffffffffffffffffffff1916827bffffffffffffffffffffffffffffffffffffffffffffffffffffffff1916148061187257507f5b5e139f000000000000000000000000000000000000000000000000000000007bffffffffffffffffffffffffffffffffffffffffffffffffffffffff1916827bffffffffffffffffffffffffffffffffffffffffffffffffffffffff1916145b80611882575061188182612390565b5b9050919050565b60008073ffffffffffffffffffffffffffffffffffffffff166002600084815260200190815260200160002060009054906101000a900473ffffffffffffffffffffffffffffffffffffffff1673ffffffffffffffffffffffffffffffffffffffff1614159050919050565b600033905090565b816004600083815260200190815260200160002060006101000a81548173ffffffffffffffffffffffffffffffffffffffff021916908373ffffffffffffffffffffffffffffffffffffffff160217905550808273ffffffffffffffffffffffffffffffffffffffff1661197083611116565b73ffffffffffffffffffffffffffffffffffffffff167f8c5be1e5ebec7d5bd14f71427d1e84f3dd0314c0f7b2291e5b200ac8c7c3b92560405160405180910390a45050565b60006119c182611889565b611a00576040517f08c379a00000000000000000000000000000000000000000000000000000000081526004016119f790613c9d565b60405180910390fd5b6000611a0b83611116565b90508073ffffffffffffffffffffffffffffffffffffffff168473ffffffffffffffffffffffffffffffffffffffff161480611a7a57508373ffffffffffffffffffffffffffffffffffffffff16611a6284610854565b73ffffffffffffffffffffffffffffffffffffffff16145b80611a8b5750611a8a818561161b565b5b91505092915050565b8273ffffffffffffffffffffffffffffffffffffffff16611ab482611116565b73ffffffffffffffffffffffffffffffffffffffff1614611b0a576040517f08c379a0000000000000000000000000000000000000000000000000000000008152600401611b0190613d2f565b60405180910390fd5b600073ffffffffffffffffffffffffffffffffffffffff168273ffffffffffffffffffffffffffffffffffffffff161415611b7a576040517f08c379a0000000000000000000000000000000000000000000000000000000008152600401611b7190613dc1565b60405180910390fd5b611b858383836123fa565b611b906000826118fd565b6001600360008573ffffffffffffffffffffffffffffffffffffffff1673ffffffffffffffffffffffffffffffffffffffff1681526020019081526020016000206000828254611be09190613de1565b925050819055506001600360008473ffffffffffffffffffffffffffffffffffffffff1673ffffffffffffffffffffffffffffffffffffffff1681526020019081526020016000206000828254611c3791906136aa565b92505081905550816002600083815260200190815260200160002060006101000a81548173ffffffffffffffffffffffffffffffffffffffff021916908373ffffffffffffffffffffffffffffffffffffffff160217905550808273ffffffffffffffffffffffffffffffffffffffff168473ffffffffffffffffffffffffffffffffffffffff167fddf252ad1be2c89b69c2b068fc378daa952ba7f163c4a11628f55a4df523b3ef60405160405180910390a4611cf683838361250e565b505050565b6001816000016000828254019250508190555050565b60008183611d1f91906136aa565b905092915050565b600073ffffffffffffffffffffffffffffffffffffffff168273ffffffffffffffffffffffffffffffffffffffff161415611d97576040517f08c379a0000000000000000000000000000000000000000000000000000000008152600401611d8e90613e61565b60405180910390fd5b611da081611889565b15611de0576040517f08c379a0000000000000000000000000000000000000000000000000000000008152600401611dd790613ecd565b60405180910390fd5b611dec600083836123fa565b6001600360008473ffffffffffffffffffffffffffffffffffffffff1673ffffffffffffffffffffffffffffffffffffffff1681526020019081526020016000206000828254611e3c91906136aa565b92505081905550816002600083815260200190815260200160002060006101000a81548173ffffffffffffffffffffffffffffffffffffffff021916908373ffffffffffffffffffffffffffffffffffffffff160217905550808273ffffffffffffffffffffffffffffffffffffffff16600073ffffffffffffffffffffffffffffffffffffffff167fddf252ad1be2c89b69c2b068fc378daa952ba7f163c4a11628f55a4df523b3ef60405160405180910390a4611efd6000838361250e565b5050565b6000600880549050905090565b6000600a60009054906101000a900473ffffffffffffffffffffffffffffffffffffffff16905081600a60006101000a81548173ffffffffffffffffffffffffffffffffffffffff021916908373ffffffffffffffffffffffffffffffffffffffff1602179055508173ffffffffffffffffffffffffffffffffffffffff168173ffffffffffffffffffffffffffffffffffffffff167f8be0079c531659141344cd1fd0a4f28419497f9722a3daafe3b4186f6b6457e060405160405180910390a35050565b8173ffffffffffffffffffffffffffffffffffffffff168373ffffffffffffffffffffffffffffffffffffffff161415612043576040517f08c379a000000000000000000000000000000000000000000000000000000000815260040161203a90613f39565b60405180910390fd5b80600560008573ffffffffffffffffffffffffffffffffffffffff1673ffffffffffffffffffffffffffffffffffffffff16815260200190815260200160002060008473ffffffffffffffffffffffffffffffffffffffff1673ffffffffffffffffffffffffffffffffffffffff16815260200190815260200160002060006101000a81548160ff0219169083151502179055508173ffffffffffffffffffffffffffffffffffffffff168373ffffffffffffffffffffffffffffffffffffffff167f17307eab39ab6107e8899845ad3d59bd9653f200f220920489ca2b5937696c31836040516121349190612b20565b60405180910390a3505050565b61214c848484611a94565b61215884848484612513565b612197576040517f08c379a000000000000000000000000000000000000000000000000000000000815260040161218e90613fcb565b60405180910390fd5b50505050565b6060600d80546121ac90613251565b80601f01602080910402602001604051908101604052809291908181526020018280546121d890613251565b80156122255780601f106121fa57610100808354040283529160200191612225565b820191906000526020600020905b81548152906001019060200180831161220857829003601f168201915b5050505050905090565b60606000821415612277576040518060400160405280600181526020017f3000000000000000000000000000000000000000000000000000000000000000815250905061238b565b600082905060005b600082146122a95780806122929061376c565b915050600a826122a2919061401a565b915061227f565b60008167ffffffffffffffff8111156122c5576122c4612ede565b5b6040519080825280601f01601f1916602001820160405280156122f75781602001600182028036833780820191505090505b5090505b60008514612384576001826123109190613de1565b9150600a8561231f919061404b565b603061232b91906136aa565b60f81b818381518110612341576123406137b5565b5b60200101907effffffffffffffffffffffffffffffffffffffffffffffffffffffffffffff1916908160001a905350600a8561237d919061401a565b94506122fb565b8093505050505b919050565b60007f01ffc9a7000000000000000000000000000000000000000000000000000000007bffffffffffffffffffffffffffffffffffffffffffffffffffffffff1916827bffffffffffffffffffffffffffffffffffffffffffffffffffffffff1916149050919050565b61240583838361269b565b600073ffffffffffffffffffffffffffffffffffffffff168373ffffffffffffffffffffffffffffffffffffffff16141561244857612443816126a0565b612487565b8173ffffffffffffffffffffffffffffffffffffffff168373ffffffffffffffffffffffffffffffffffffffff16146124865761248583826126e9565b5b5b600073ffffffffffffffffffffffffffffffffffffffff168273ffffffffffffffffffffffffffffffffffffffff1614156124ca576124c581612856565b612509565b8273ffffffffffffffffffffffffffffffffffffffff168273ffffffffffffffffffffffffffffffffffffffff1614612508576125078282612927565b5b5b505050565b505050565b60006125348473ffffffffffffffffffffffffffffffffffffffff166129a6565b1561268e578373ffffffffffffffffffffffffffffffffffffffff1663150b7a0261255d6118f5565b8786866040518563ffffffff1660e01b815260040161257f94939291906140d1565b6020604051808303816000875af19250505080156125bb57506040513d601f19601f820116820180604052508101906125b89190614132565b60015b61263e573d80600081146125eb576040519150601f19603f3d011682016040523d82523d6000602084013e6125f0565b606091505b50600081511415612636576040517f08c379a000000000000000000000000000000000000000000000000000000000815260040161262d90613fcb565b60405180910390fd5b805181602001fd5b63150b7a0260e01b7bffffffffffffffffffffffffffffffffffffffffffffffffffffffff1916817bffffffffffffffffffffffffffffffffffffffffffffffffffffffff191614915050612693565b600190505b949350505050565b505050565b6008805490506009600083815260200190815260200160002081905550600881908060018154018082558091505060019003906000526020600020016000909190919091505550565b600060016126f6846111c8565b6127009190613de1565b90506000600760008481526020019081526020016000205490508181146127e5576000600660008673ffffffffffffffffffffffffffffffffffffffff1673ffffffffffffffffffffffffffffffffffffffff168152602001908152602001600020600084815260200190815260200160002054905080600660008773ffffffffffffffffffffffffffffffffffffffff1673ffffffffffffffffffffffffffffffffffffffff168152602001908152602001600020600084815260200190815260200160002081905550816007600083815260200190815260200160002081905550505b6007600084815260200190815260200160002060009055600660008573ffffffffffffffffffffffffffffffffffffffff1673ffffffffffffffffffffffffffffffffffffffff16815260200190815260200160002060008381526020019081526020016000206000905550505050565b6000600160088054905061286a9190613de1565b905060006009600084815260200190815260200160002054905060006008838154811061289a576128996137b5565b5b9060005260206000200154905080600883815481106128bc576128bb6137b5565b5b90600052602060002001819055508160096000838152602001908152602001600020819055506009600085815260200190815260200160002060009055600880548061290b5761290a61415f565b5b6001900381819060005260206000200160009055905550505050565b6000612932836111c8565b905081600660008573ffffffffffffffffffffffffffffffffffffffff1673ffffffffffffffffffffffffffffffffffffffff168152602001908152602001600020600083815260200190815260200160002081905550806007600084815260200190815260200160002081905550505050565b6000808273ffffffffffffffffffffffffffffffffffffffff163b119050919050565b8280546129d590613251565b90600052602060002090601f0160209004810192826129f75760008555612a3e565b82601f10612a1057805160ff1916838001178555612a3e565b82800160010185558215612a3e579182015b82811115612a3d578251825591602001919060010190612a22565b5b509050612a4b9190612a4f565b5090565b5b80821115612a68576000816000905550600101612a50565b5090565b6000604051905090565b600080fd5b600080fd5b60007fffffffff0000000000000000000000000000000000000000000000000000000082169050919050565b612ab581612a80565b8114612ac057600080fd5b50565b600081359050612ad281612aac565b92915050565b600060208284031215612aee57612aed612a76565b5b6000612afc84828501612ac3565b91505092915050565b60008115159050919050565b612b1a81612b05565b82525050565b6000602082019050612b356000830184612b11565b92915050565b600081519050919050565b600082825260208201905092915050565b60005b83811015612b75578082015181840152602081019050612b5a565b83811115612b84576000848401525b50505050565b6000601f19601f8301169050919050565b6000612ba682612b3b565b612bb08185612b46565b9350612bc0818560208601612b57565b612bc981612b8a565b840191505092915050565b60006020820190508181036000830152612bee8184612b9b565b905092915050565b6000819050919050565b612c0981612bf6565b8114612c1457600080fd5b50565b600081359050612c2681612c00565b92915050565b600060208284031215612c4257612c41612a76565b5b6000612c5084828501612c17565b91505092915050565b600073ffffffffffffffffffffffffffffffffffffffff82169050919050565b6000612c8482612c59565b9050919050565b612c9481612c79565b82525050565b6000602082019050612caf6000830184612c8b565b92915050565b612cbe81612c79565b8114612cc957600080fd5b50565b600081359050612cdb81612cb5565b92915050565b60008060408385031215612cf857612cf7612a76565b5b6000612d0685828601612ccc565b9250506020612d1785828601612c17565b9150509250929050565b612d2a81612bf6565b82525050565b6000602082019050612d456000830184612d21565b92915050565b600080600060608486031215612d6457612d63612a76565b5b6000612d7286828701612ccc565b9350506020612d8386828701612ccc565b9250506040612d9486828701612c17565b9150509250925092565b600060208284031215612db457612db3612a76565b5b6000612dc284828501612ccc565b91505092915050565b600081519050919050565b600082825260208201905092915050565b6000819050602082019050919050565b612e0081612bf6565b82525050565b6000612e128383612df7565b60208301905092915050565b6000602082019050919050565b6000612e3682612dcb565b612e408185612dd6565b9350612e4b83612de7565b8060005b83811015612e7c578151612e638882612e06565b9750612e6e83612e1e565b925050600181019050612e4f565b5085935050505092915050565b60006020820190508181036000830152612ea38184612e2b565b905092915050565b6000604082019050612ec06000830185612d21565b612ecd6020830184612c8b565b9392505050565b600080fd5b600080fd5b7f4e487b7100000000000000000000000000000000000000000000000000000000600052604160045260246000fd5b612f1682612b8a565b810181811067ffffffffffffffff82111715612f3557612f34612ede565b5b80604052505050565b6000612f48612a6c565b9050612f548282612f0d565b919050565b600067ffffffffffffffff821115612f7457612f73612ede565b5b612f7d82612b8a565b9050602081019050919050565b82818337600083830152505050565b6000612fac612fa784612f59565b612f3e565b905082815260208101848484011115612fc857612fc7612ed9565b5b612fd3848285612f8a565b509392505050565b600082601f830112612ff057612fef612ed4565b5b8135613000848260208601612f99565b91505092915050565b60006020828403121561301f5761301e612a76565b5b600082013567ffffffffffffffff81111561303d5761303c612a7b565b5b61304984828501612fdb565b91505092915050565b61305b81612b05565b811461306657600080fd5b50565b60008135905061307881613052565b92915050565b6000806040838503121561309557613094612a76565b5b60006130a385828601612ccc565b92505060206130b485828601613069565b9150509250929050565b600067ffffffffffffffff8211156130d9576130d8612ede565b5b6130e282612b8a565b9050602081019050919050565b60006131026130fd846130be565b612f3e565b90508281526020810184848401111561311e5761311d612ed9565b5b613129848285612f8a565b509392505050565b600082601f83011261314657613145612ed4565b5b81356131568482602086016130ef565b91505092915050565b6000806000806080858703121561317957613178612a76565b5b600061318787828801612ccc565b945050602061319887828801612ccc565b93505060406131a987828801612c17565b925050606085013567ffffffffffffffff8111156131ca576131c9612a7b565b5b6131d687828801613131565b91505092959194509250565b600080604083850312156131f9576131f8612a76565b5b600061320785828601612ccc565b925050602061321885828601612ccc565b9150509250929050565b7f4e487b7100000000000000000000000000000000000000000000000000000000600052602260045260246000fd5b6000600282049050600182168061326957607f821691505b6020821081141561327d5761327c613222565b5b50919050565b7f4552433732313a20617070726f76656420717565727920666f72206e6f6e657860008201527f697374656e7420746f6b656e0000000000000000000000000000000000000000602082015250565b60006132df602c83612b46565b91506132ea82613283565b604082019050919050565b6000602082019050818103600083015261330e816132d2565b9050919050565b7f4552433732313a20617070726f76616c20746f2063757272656e74206f776e6560008201527f7200000000000000000000000000000000000000000000000000000000000000602082015250565b6000613371602183612b46565b915061337c82613315565b604082019050919050565b600060208201905081810360008301526133a081613364565b9050919050565b7f4552433732313a20617070726f76652063616c6c6572206973206e6f74206f7760008201527f6e6572206e6f7220617070726f76656420666f7220616c6c0000000000000000602082015250565b6000613403603883612b46565b915061340e826133a7565b604082019050919050565b60006020820190508181036000830152613432816133f6565b9050919050565b7f4552433732313a207472616e736665722063616c6c6572206973206e6f74206f60008201527f776e6572206e6f7220617070726f766564000000000000000000000000000000602082015250565b6000613495603183612b46565b91506134a082613439565b604082019050919050565b600060208201905081810360008301526134c481613488565b9050919050565b7f455243373231456e756d657261626c653a206f776e657220696e646578206f7560008201527f74206f6620626f756e6473000000000000000000000000000000000000000000602082015250565b6000613527602b83612b46565b9150613532826134cb565b604082019050919050565b600060208201905081810360008301526135568161351a565b9050919050565b7f5265656e7472616e637947756172643a207265656e7472616e742063616c6c00600082015250565b6000613593601f83612b46565b915061359e8261355d565b602082019050919050565b600060208201905081810360008301526135c281613586565b9050919050565b600081905092915050565b50565b60006135e46000836135c9565b91506135ef826135d4565b600082019050919050565b6000613605826135d7565b9150819050919050565b7f4e6f7420656e6f7567682066756e647320746f206d696e740000000000000000600082015250565b6000613645601883612b46565b91506136508261360f565b602082019050919050565b6000602082019050818103600083015261367481613638565b9050919050565b7f4e487b7100000000000000000000000000000000000000000000000000000000600052601160045260246000fd5b60006136b582612bf6565b91506136c083612bf6565b9250827fffffffffffffffffffffffffffffffffffffffffffffffffffffffffffffffff038211156136f5576136f461367b565b5b828201905092915050565b7f4d6178696d756d20737570706c79207265616368656400000000000000000000600082015250565b6000613736601683612b46565b915061374182613700565b602082019050919050565b6000602082019050818103600083015261376581613729565b9050919050565b600061377782612bf6565b91507fffffffffffffffffffffffffffffffffffffffffffffffffffffffffffffffff8214156137aa576137a961367b565b5b600182019050919050565b7f4e487b7100000000000000000000000000000000000000000000000000000000600052603260045260246000fd5b7f4f776e61626c653a2063616c6c6572206973206e6f7420746865206f776e6572600082015250565b600061381a602083612b46565b9150613825826137e4565b602082019050919050565b600060208201905081810360008301526138498161380d565b9050919050565b7f455243373231456e756d657261626c653a20676c6f62616c20696e646578206f60008201527f7574206f6620626f756e64730000000000000000000000000000000000000000602082015250565b60006138ac602c83612b46565b91506138b782613850565b604082019050919050565b600060208201905081810360008301526138db8161389f565b9050919050565b7f4552433732313a206f776e657220717565727920666f72206e6f6e657869737460008201527f656e7420746f6b656e0000000000000000000000000000000000000000000000602082015250565b600061393e602983612b46565b9150613949826138e2565b604082019050919050565b6000602082019050818103600083015261396d81613931565b9050919050565b7f4552433732313a2062616c616e636520717565727920666f7220746865207a6560008201527f726f206164647265737300000000000000000000000000000000000000000000602082015250565b60006139d0602a83612b46565b91506139db82613974565b604082019050919050565b600060208201905081810360008301526139ff816139c3565b9050919050565b7f4552433732314d657461646174613a2055524920717565727920666f72206e6f60008201527f6e6578697374656e7420746f6b656e0000000000000000000000000000000000602082015250565b6000613a62602f83612b46565b9150613a6d82613a06565b604082019050919050565b60006020820190508181036000830152613a9181613a55565b9050919050565b600081905092915050565b6000613aae82612b3b565b613ab88185613a98565b9350613ac8818560208601612b57565b80840191505092915050565b60008190508160005260206000209050919050565b60008154613af681613251565b613b008186613a98565b94506001821660008114613b1b5760018114613b2c57613b5f565b60ff19831686528186019350613b5f565b613b3585613ad4565b60005b83811015613b5757815481890152600182019150602081019050613b38565b838801955050505b50505092915050565b6000613b748286613aa3565b9150613b808285613aa3565b9150613b8c8284613ae9565b9150819050949350505050565b7f4f776e61626c653a206e6577206f776e657220697320746865207a65726f206160008201527f6464726573730000000000000000000000000000000000000000000000000000602082015250565b6000613bf5602683612b46565b9150613c0082613b99565b604082019050919050565b60006020820190508181036000830152613c2481613be8565b9050919050565b7f4552433732313a206f70657261746f7220717565727920666f72206e6f6e657860008201527f697374656e7420746f6b656e0000000000000000000000000000000000000000602082015250565b6000613c87602c83612b46565b9150613c9282613c2b565b604082019050919050565b60006020820190508181036000830152613cb681613c7a565b9050919050565b7f4552433732313a207472616e736665722066726f6d20696e636f72726563742060008201527f6f776e6572000000000000000000000000000000000000000000000000000000602082015250565b6000613d19602583612b46565b9150613d2482613cbd565b604082019050919050565b60006020820190508181036000830152613d4881613d0c565b9050919050565b7f4552433732313a207472616e7366657220746f20746865207a65726f2061646460008201527f7265737300000000000000000000000000000000000000000000000000000000602082015250565b6000613dab602483612b46565b9150613db682613d4f565b604082019050919050565b60006020820190508181036000830152613dda81613d9e565b9050919050565b6000613dec82612bf6565b9150613df783612bf6565b925082821015613e0a57613e0961367b565b5b828203905092915050565b7f4552433732313a206d696e7420746f20746865207a65726f2061646472657373600082015250565b6000613e4b602083612b46565b9150613e5682613e15565b602082019050919050565b60006020820190508181036000830152613e7a81613e3e565b9050919050565b7f4552433732313a20746f6b656e20616c7265616479206d696e74656400000000600082015250565b6000613eb7601c83612b46565b9150613ec282613e81565b602082019050919050565b60006020820190508181036000830152613ee681613eaa565b9050919050565b7f4552433732313a20617070726f766520746f2063616c6c657200000000000000600082015250565b6000613f23601983612b46565b9150613f2e82613eed565b602082019050919050565b60006020820190508181036000830152613f5281613f16565b9050919050565b7f4552433732313a207472616e7366657220746f206e6f6e20455243373231526560008201527f63656976657220696d706c656d656e7465720000000000000000000000000000602082015250565b6000613fb5603283612b46565b9150613fc082613f59565b604082019050919050565b60006020820190508181036000830152613fe481613fa8565b9050919050565b7f4e487b7100000000000000000000000000000000000000000000000000000000600052601260045260246000fd5b600061402582612bf6565b915061403083612bf6565b9250826140405761403f613feb565b5b828204905092915050565b600061405682612bf6565b915061406183612bf6565b92508261407157614070613feb565b5b828206905092915050565b600081519050919050565b600082825260208201905092915050565b60006140a38261407c565b6140ad8185614087565b93506140bd818560208601612b57565b6140c681612b8a565b840191505092915050565b60006080820190506140e66000830187612c8b565b6140f36020830186612c8b565b6141006040830185612d21565b81810360608301526141128184614098565b905095945050505050565b60008151905061412c81612aac565b92915050565b60006020828403121561414857614147612a76565b5b60006141568482850161411d565b91505092915050565b7f4e487b7100000000000000000000000000000000000000000000000000000000600052603160045260246000fdfea26469706673582212200a1178ecfbe4c4a7a4a075558993ffa0abb166bd58d07a9714d5a864c4fc62b564736f6c634300080b0033",
  "linkReferences": {},
  "deployedLinkReferences": {}
}