{
  "_format": "hh-sol-artifact-1",
  "contractName": "NFTCollection",
  "sourceName": "contracts/NFTCollection.sol",
  "abi": [
    {
      "inputs": [
        {
          "internalType": "string",
          "name": "_name",
          "type": "string"
        },
        {
          "internalType": "string",
          "name": "_symbol",
          "type": "string"
        },
        {
          "internalType": "string",
          "name": "_initBaseURI",
          "type": "string"
        },
        {
          "internalType": "uint256",
          "name": "_newCost",
          "type": "uint256"
        }
      ],
      "stateMutability": "nonpayable",
      "type": "constructor"
    },
    {
      "anonymous": false,
      "inputs": [
        {
          "indexed": true,
          "internalType": "address",
          "name": "owner",
          "type": "address"
        },
        {
          "indexed": true,
          "internalType": "address",
          "name": "approved",
          "type": "address"
        },
        {
          "indexed": true,
          "internalType": "uint256",
          "name": "tokenId",
          "type": "uint256"
        }
      ],
      "name": "Approval",
      "type": "event"
    },
    {
      "anonymous": false,
      "inputs": [
        {
          "indexed": true,
          "internalType": "address",
          "name": "owner",
          "type": "address"
        },
        {
          "indexed": true,
          "internalType": "address",
          "name": "operator",
          "type": "address"
        },
        {
          "indexed": false,
          "internalType": "bool",
          "name": "approved",
          "type": "bool"
        }
      ],
      "name": "ApprovalForAll",
      "type": "event"
    },
    {
      "anonymous": false,
      "inputs": [
        {
          "indexed": true,
          "internalType": "address",
          "name": "previousOwner",
          "type": "address"
        },
        {
          "indexed": true,
          "internalType": "address",
          "name": "newOwner",
          "type": "address"
        }
      ],
      "name": "OwnershipTransferred",
      "type": "event"
    },
    {
      "anonymous": false,
      "inputs": [
        {
          "indexed": false,
          "internalType": "uint256",
          "name": "tokenId",
          "type": "uint256"
        }
      ],
      "name": "TokenMinted",
      "type": "event"
    },
    {
      "anonymous": false,
      "inputs": [
        {
          "indexed": true,
          "internalType": "address",
          "name": "from",
          "type": "address"
        },
        {
          "indexed": true,
          "internalType": "address",
          "name": "to",
          "type": "address"
        },
        {
          "indexed": true,
          "internalType": "uint256",
          "name": "tokenId",
          "type": "uint256"
        }
      ],
      "name": "Transfer",
      "type": "event"
    },
    {
      "inputs": [],
      "name": "_tokenId",
      "outputs": [
        {
          "internalType": "uint256",
          "name": "_value",
          "type": "uint256"
        }
      ],
      "stateMutability": "view",
      "type": "function"
    },
    {
      "inputs": [
        {
          "internalType": "address",
          "name": "to",
          "type": "address"
        },
        {
          "internalType": "uint256",
          "name": "tokenId",
          "type": "uint256"
        }
      ],
      "name": "approve",
      "outputs": [],
      "stateMutability": "nonpayable",
      "type": "function"
    },
    {
      "inputs": [
        {
          "internalType": "address",
          "name": "owner",
          "type": "address"
        }
      ],
      "name": "balanceOf",
      "outputs": [
        {
          "internalType": "uint256",
          "name": "",
          "type": "uint256"
        }
      ],
      "stateMutability": "view",
      "type": "function"
    },
    {
      "inputs": [],
      "name": "baseExtension",
      "outputs": [
        {
          "internalType": "string",
          "name": "",
          "type": "string"
        }
      ],
      "stateMutability": "view",
      "type": "function"
    },
    {
      "inputs": [],
      "name": "cost",
      "outputs": [
        {
          "internalType": "uint256",
          "name": "",
          "type": "uint256"
        }
      ],
      "stateMutability": "view",
      "type": "function"
    },
    {
      "inputs": [
        {
          "internalType": "uint256",
          "name": "tokenId",
          "type": "uint256"
        }
      ],
      "name": "getApproved",
      "outputs": [
        {
          "internalType": "address",
          "name": "",
          "type": "address"
        }
      ],
      "stateMutability": "view",
      "type": "function"
    },
    {
      "inputs": [
        {
          "internalType": "address",
          "name": "owner",
          "type": "address"
        },
        {
          "internalType": "address",
          "name": "operator",
          "type": "address"
        }
      ],
      "name": "isApprovedForAll",
      "outputs": [
        {
          "internalType": "bool",
          "name": "",
          "type": "bool"
        }
      ],
      "stateMutability": "view",
      "type": "function"
    },
    {
      "inputs": [],
      "name": "maxSupply",
      "outputs": [
        {
          "internalType": "uint256",
          "name": "",
          "type": "uint256"
        }
      ],
      "stateMutability": "pure",
      "type": "function"
    },
    {
      "inputs": [
        {
          "internalType": "address",
          "name": "to",
          "type": "address"
        },
        {
          "internalType": "uint256",
          "name": "amount",
          "type": "uint256"
        }
      ],
      "name": "mint",
      "outputs": [],
      "stateMutability": "payable",
      "type": "function"
    },
    {
      "inputs": [],
      "name": "name",
      "outputs": [
        {
          "internalType": "string",
          "name": "",
          "type": "string"
        }
      ],
      "stateMutability": "view",
      "type": "function"
    },
    {
      "inputs": [],
      "name": "owner",
      "outputs": [
        {
          "internalType": "address",
          "name": "",
          "type": "address"
        }
      ],
      "stateMutability": "view",
      "type": "function"
    },
    {
      "inputs": [
        {
          "internalType": "uint256",
          "name": "tokenId",
          "type": "uint256"
        }
      ],
      "name": "ownerOf",
      "outputs": [
        {
          "internalType": "address",
          "name": "",
          "type": "address"
        }
      ],
      "stateMutability": "view",
      "type": "function"
    },
    {
      "inputs": [],
      "name": "renounceOwnership",
      "outputs": [],
      "stateMutability": "nonpayable",
      "type": "function"
    },
    {
      "inputs": [
        {
          "internalType": "address",
          "name": "from",
          "type": "address"
        },
        {
          "internalType": "address",
          "name": "to",
          "type": "address"
        },
        {
          "internalType": "uint256",
          "name": "tokenId",
          "type": "uint256"
        }
      ],
      "name": "safeTransferFrom",
      "outputs": [],
      "stateMutability": "nonpayable",
      "type": "function"
    },
    {
      "inputs": [
        {
          "internalType": "address",
          "name": "from",
          "type": "address"
        },
        {
          "internalType": "address",
          "name": "to",
          "type": "address"
        },
        {
          "internalType": "uint256",
          "name": "tokenId",
          "type": "uint256"
        },
        {
          "internalType": "bytes",
          "name": "_data",
          "type": "bytes"
        }
      ],
      "name": "safeTransferFrom",
      "outputs": [],
      "stateMutability": "nonpayable",
      "type": "function"
    },
    {
      "inputs": [
        {
          "internalType": "address",
          "name": "operator",
          "type": "address"
        },
        {
          "internalType": "bool",
          "name": "approved",
          "type": "bool"
        }
      ],
      "name": "setApprovalForAll",
      "outputs": [],
      "stateMutability": "nonpayable",
      "type": "function"
    },
    {
      "inputs": [
        {
          "internalType": "string",
          "name": "_newBaseExtension",
          "type": "string"
        }
      ],
      "name": "setBaseExtension",
      "outputs": [],
      "stateMutability": "nonpayable",
      "type": "function"
    },
    {
      "inputs": [
        {
          "internalType": "string",
          "name": "_newBaseURI",
          "type": "string"
        }
      ],
      "name": "setBaseURI",
      "outputs": [],
      "stateMutability": "nonpayable",
      "type": "function"
    },
    {
      "inputs": [
        {
          "internalType": "uint256",
          "name": "newCost",
          "type": "uint256"
        }
      ],
      "name": "setCost",
      "outputs": [],
      "stateMutability": "nonpayable",
      "type": "function"
    },
    {
      "inputs": [
        {
          "internalType": "bytes4",
          "name": "interfaceId",
          "type": "bytes4"
        }
      ],
      "name": "supportsInterface",
      "outputs": [
        {
          "internalType": "bool",
          "name": "",
          "type": "bool"
        }
      ],
      "stateMutability": "view",
      "type": "function"
    },
    {
      "inputs": [],
      "name": "symbol",
      "outputs": [
        {
          "internalType": "string",
          "name": "",
          "type": "string"
        }
      ],
      "stateMutability": "view",
      "type": "function"
    },
    {
      "inputs": [
        {
          "internalType": "uint256",
          "name": "index",
          "type": "uint256"
        }
      ],
      "name": "tokenByIndex",
      "outputs": [
        {
          "internalType": "uint256",
          "name": "",
          "type": "uint256"
        }
      ],
      "stateMutability": "view",
      "type": "function"
    },
    {
      "inputs": [
        {
          "internalType": "address",
          "name": "owner",
          "type": "address"
        },
        {
          "internalType": "uint256",
          "name": "index",
          "type": "uint256"
        }
      ],
      "name": "tokenOfOwnerByIndex",
      "outputs": [
        {
          "internalType": "uint256",
          "name": "",
          "type": "uint256"
        }
      ],
      "stateMutability": "view",
      "type": "function"
    },
    {
      "inputs": [
        {
          "internalType": "uint256",
          "name": "tokenId",
          "type": "uint256"
        }
      ],
      "name": "tokenURI",
      "outputs": [
        {
          "internalType": "string",
          "name": "",
          "type": "string"
        }
      ],
      "stateMutability": "view",
      "type": "function"
    },
    {
      "inputs": [],
      "name": "totalSupply",
      "outputs": [
        {
          "internalType": "uint256",
          "name": "",
          "type": "uint256"
        }
      ],
      "stateMutability": "view",
      "type": "function"
    },
    {
      "inputs": [
        {
          "internalType": "address",
          "name": "from",
          "type": "address"
        },
        {
          "internalType": "address",
          "name": "to",
          "type": "address"
        },
        {
          "internalType": "uint256",
          "name": "tokenId",
          "type": "uint256"
        }
      ],
      "name": "transferFrom",
      "outputs": [],
      "stateMutability": "nonpayable",
      "type": "function"
    },
    {
      "inputs": [
        {
          "internalType": "address",
          "name": "newOwner",
          "type": "address"
        }
      ],
      "name": "transferOwnership",
      "outputs": [],
      "stateMutability": "nonpayable",
      "type": "function"
    },
    {
      "inputs": [
        {
          "internalType": "address",
          "name": "_owner",
          "type": "address"
        }
      ],
      "name": "walletOfOwner",
      "outputs": [
        {
          "internalType": "uint256[]",
          "name": "",
          "type": "uint256[]"
        }
      ],
      "stateMutability": "view",
      "type": "function"
    },
    {
      "inputs": [],
      "name": "withdraw",
      "outputs": [],
      "stateMutability": "nonpayable",
      "type": "function"
    }
  ],
  "bytecode": "0x60806040526040518060400160405280600581526020017f2e6a736f6e000000000000000000000000000000000000000000000000000000815250600e9080519060200190620000519291906200034b565b503480156200005f57600080fd5b5060405162004892380380620048928339818101604052810190620000859190620005d3565b838381600090805190602001906200009f9291906200034b565b508060019080519060200190620000b89291906200034b565b505050620000db620000cf6200010f60201b60201c565b6200011760201b60201c565b6001600b81905550620000f482620001dd60201b60201c565b62000105816200028860201b60201c565b505050506200078a565b600033905090565b6000600a60009054906101000a900473ffffffffffffffffffffffffffffffffffffffff16905081600a60006101000a81548173ffffffffffffffffffffffffffffffffffffffff021916908373ffffffffffffffffffffffffffffffffffffffff1602179055508173ffffffffffffffffffffffffffffffffffffffff168173ffffffffffffffffffffffffffffffffffffffff167f8be0079c531659141344cd1fd0a4f28419497f9722a3daafe3b4186f6b6457e060405160405180910390a35050565b620001ed6200010f60201b60201c565b73ffffffffffffffffffffffffffffffffffffffff16620002136200032160201b60201c565b73ffffffffffffffffffffffffffffffffffffffff16146200026c576040517f08c379a0000000000000000000000000000000000000000000000000000000008152600401620002639062000703565b60405180910390fd5b80600d9080519060200190620002849291906200034b565b5050565b620002986200010f60201b60201c565b73ffffffffffffffffffffffffffffffffffffffff16620002be6200032160201b60201c565b73ffffffffffffffffffffffffffffffffffffffff161462000317576040517f08c379a00000000000000000000000000000000000000000000000000000000081526004016200030e9062000703565b60405180910390fd5b80600f8190555050565b6000600a60009054906101000a900473ffffffffffffffffffffffffffffffffffffffff16905090565b828054620003599062000754565b90600052602060002090601f0160209004810192826200037d5760008555620003c9565b82601f106200039857805160ff1916838001178555620003c9565b82800160010185558215620003c9579182015b82811115620003c8578251825591602001919060010190620003ab565b5b509050620003d89190620003dc565b5090565b5b80821115620003f7576000816000905550600101620003dd565b5090565b6000604051905090565b600080fd5b600080fd5b600080fd5b600080fd5b6000601f19601f8301169050919050565b7f4e487b7100000000000000000000000000000000000000000000000000000000600052604160045260246000fd5b620004648262000419565b810181811067ffffffffffffffff821117156200048657620004856200042a565b5b80604052505050565b60006200049b620003fb565b9050620004a9828262000459565b919050565b600067ffffffffffffffff821115620004cc57620004cb6200042a565b5b620004d78262000419565b9050602081019050919050565b60005b8381101562000504578082015181840152602081019050620004e7565b8381111562000514576000848401525b50505050565b6000620005316200052b84620004ae565b6200048f565b90508281526020810184848401111562000550576200054f62000414565b5b6200055d848285620004e4565b509392505050565b600082601f8301126200057d576200057c6200040f565b5b81516200058f8482602086016200051a565b91505092915050565b6000819050919050565b620005ad8162000598565b8114620005b957600080fd5b50565b600081519050620005cd81620005a2565b92915050565b60008060008060808587031215620005f057620005ef62000405565b5b600085015167ffffffffffffffff8111156200061157620006106200040a565b5b6200061f8782880162000565565b945050602085015167ffffffffffffffff8111156200064357620006426200040a565b5b620006518782880162000565565b935050604085015167ffffffffffffffff8111156200067557620006746200040a565b5b620006838782880162000565565b92505060606200069687828801620005bc565b91505092959194509250565b600082825260208201905092915050565b7f4f776e61626c653a2063616c6c6572206973206e6f7420746865206f776e6572600082015250565b6000620006eb602083620006a2565b9150620006f882620006b3565b602082019050919050565b600060208201905081810360008301526200071e81620006dc565b9050919050565b7f4e487b7100000000000000000000000000000000000000000000000000000000600052602260045260246000fd5b600060028204905060018216806200076d57607f821691505b6020821081141562000784576200078362000725565b5b50919050565b6140f8806200079a6000396000f3fe6080604052600436106101c25760003560e01c80634f6ccce7116100f7578063a22cb46511610095578063d5abeb0111610064578063d5abeb0114610645578063da3ef23f14610670578063e985e9c514610699578063f2fde38b146106d6576101c2565b8063a22cb4651461058b578063b88d4fde146105b4578063c6682862146105dd578063c87b56dd14610608576101c2565b806370a08231116100d157806370a08231146104e1578063715018a61461051e5780638da5cb5b1461053557806395d89b4114610560576101c2565b80634f6ccce71461043e57806355f804b31461047b5780636352211e146104a4576101c2565b8063248225141161016457806340c10f191161013e57806340c10f191461039357806342842e0e146103af578063438b6300146103d857806344a0d68a14610415576101c2565b806324822514146103145780632f745c591461033f5780633ccfd60b1461037c576101c2565b8063095ea7b3116101a0578063095ea7b31461026c57806313faede61461029557806318160ddd146102c057806323b872dd146102eb576101c2565b806301ffc9a7146101c757806306fdde0314610204578063081812fc1461022f575b600080fd5b3480156101d357600080fd5b506101ee60048036038101906101e99190612a35565b6106ff565b6040516101fb9190612a7d565b60405180910390f35b34801561021057600080fd5b50610219610779565b6040516102269190612b31565b60405180910390f35b34801561023b57600080fd5b5061025660048036038101906102519190612b89565b61080b565b6040516102639190612bf7565b60405180910390f35b34801561027857600080fd5b50610293600480360381019061028e9190612c3e565b610890565b005b3480156102a157600080fd5b506102aa6109a8565b6040516102b79190612c8d565b60405180910390f35b3480156102cc57600080fd5b506102d56109b2565b6040516102e29190612c8d565b60405180910390f35b3480156102f757600080fd5b50610312600480360381019061030d9190612ca8565b6109bc565b005b34801561032057600080fd5b50610329610a1c565b6040516103369190612c8d565b60405180910390f35b34801561034b57600080fd5b5061036660048036038101906103619190612c3e565b610a28565b6040516103739190612c8d565b60405180910390f35b34801561038857600080fd5b50610391610acd565b005b6103ad60048036038101906103a89190612c3e565b610ba3565b005b3480156103bb57600080fd5b506103d660048036038101906103d19190612ca8565b610e18565b005b3480156103e457600080fd5b506103ff60048036038101906103fa9190612cfb565b610e38565b60405161040c9190612de6565b60405180910390f35b34801561042157600080fd5b5061043c60048036038101906104379190612b89565b610ee6565b005b34801561044a57600080fd5b5061046560048036038101906104609190612b89565b610f6c565b6040516104729190612c8d565b60405180910390f35b34801561048757600080fd5b506104a2600480360381019061049d9190612f3d565b610fdd565b005b3480156104b057600080fd5b506104cb60048036038101906104c69190612b89565b611073565b6040516104d89190612bf7565b60405180910390f35b3480156104ed57600080fd5b5061050860048036038101906105039190612cfb565b611125565b6040516105159190612c8d565b60405180910390f35b34801561052a57600080fd5b506105336111dd565b005b34801561054157600080fd5b5061054a611265565b6040516105579190612bf7565b60405180910390f35b34801561056c57600080fd5b5061057561128f565b6040516105829190612b31565b60405180910390f35b34801561059757600080fd5b506105b260048036038101906105ad9190612fb2565b611321565b005b3480156105c057600080fd5b506105db60048036038101906105d69190613093565b611337565b005b3480156105e957600080fd5b506105f2611399565b6040516105ff9190612b31565b60405180910390f35b34801561061457600080fd5b5061062f600480360381019061062a9190612b89565b611427565b60405161063c9190612b31565b60405180910390f35b34801561065157600080fd5b5061065a6114d1565b6040516106679190612c8d565b60405180910390f35b34801561067c57600080fd5b5061069760048036038101906106929190612f3d565b6114e2565b005b3480156106a557600080fd5b506106c060048036038101906106bb9190613116565b611578565b6040516106cd9190612a7d565b60405180910390f35b3480156106e257600080fd5b506106fd60048036038101906106f89190612cfb565b61160c565b005b60007f780e9d63000000000000000000000000000000000000000000000000000000007bffffffffffffffffffffffffffffffffffffffffffffffffffffffff1916827bffffffffffffffffffffffffffffffffffffffffffffffffffffffff19161480610772575061077182611704565b5b9050919050565b60606000805461078890613185565b80601f01602080910402602001604051908101604052809291908181526020018280546107b490613185565b80156108015780601f106107d657610100808354040283529160200191610801565b820191906000526020600020905b8154815290600101906020018083116107e457829003601f168201915b5050505050905090565b6000610816826117e6565b610855576040517f08c379a000000000000000000000000000000000000000000000000000000000815260040161084c90613229565b60405180910390fd5b6004600083815260200190815260200160002060009054906101000a900473ffffffffffffffffffffffffffffffffffffffff169050919050565b600061089b82611073565b90508073ffffffffffffffffffffffffffffffffffffffff168373ffffffffffffffffffffffffffffffffffffffff16141561090c576040517f08c379a0000000000000000000000000000000000000000000000000000000008152600401610903906132bb565b60405180910390fd5b8073ffffffffffffffffffffffffffffffffffffffff1661092b611852565b73ffffffffffffffffffffffffffffffffffffffff16148061095a575061095981610954611852565b611578565b5b610999576040517f08c379a00000000000000000000000000000000000000000000000000000000081526004016109909061334d565b60405180910390fd5b6109a3838361185a565b505050565b6000600f54905090565b6000601054905090565b6109cd6109c7611852565b82611913565b610a0c576040517f08c379a0000000000000000000000000000000000000000000000000000000008152600401610a03906133df565b60405180910390fd5b610a178383836119f1565b505050565b600c8060000154905081565b6000610a3383611125565b8210610a74576040517f08c379a0000000000000000000000000000000000000000000000000000000008152600401610a6b90613471565b60405180910390fd5b600660008473ffffffffffffffffffffffffffffffffffffffff1673ffffffffffffffffffffffffffffffffffffffff168152602001908152602001600020600083815260200190815260200160002054905092915050565b6002600b541415610b13576040517f08c379a0000000000000000000000000000000000000000000000000000000008152600401610b0a906134dd565b60405180910390fd5b6002600b819055506000610b25611265565b73ffffffffffffffffffffffffffffffffffffffff1647604051610b489061352e565b60006040518083038185875af1925050503d8060008114610b85576040519150601f19603f3d011682016040523d82523d6000602084013e610b8a565b606091505b5050905080610b9857600080fd5b506001600b81905550565b610bab611852565b73ffffffffffffffffffffffffffffffffffffffff16610bc9611265565b73ffffffffffffffffffffffffffffffffffffffff1614610c1f576040517f08c379a0000000000000000000000000000000000000000000000000000000008152600401610c169061358f565b60405180910390fd5b6002600b541415610c65576040517f08c379a0000000000000000000000000000000000000000000000000000000008152600401610c5c906134dd565b60405180910390fd5b6002600b81905550610c77600c611c58565b600f54341015610cbc576040517f08c379a0000000000000000000000000000000000000000000000000000000008152600401610cb3906135fb565b60405180910390fd5b68027e60d44813f8000081601154610cd4919061364a565b1115610d15576040517f08c379a0000000000000000000000000000000000000000000000000000000008152600401610d0c906136ec565b60405180910390fd5b610d2a81601054611c6e90919063ffffffff16565b601081905550610d4581601154611c6e90919063ffffffff16565b601181905550610d9d81601260008573ffffffffffffffffffffffffffffffffffffffff1673ffffffffffffffffffffffffffffffffffffffff16815260200190815260200160002054611c6e90919063ffffffff16565b601260008473ffffffffffffffffffffffffffffffffffffffff1673ffffffffffffffffffffffffffffffffffffffff168152602001908152602001600020819055506000600190505b818111610e0b57610df88382611c84565b8080610e039061370c565b915050610de7565b506001600b819055505050565b610e3383838360405180602001604052806000815250611337565b505050565b60606000610e4583611125565b905060008167ffffffffffffffff811115610e6357610e62612e12565b5b604051908082528060200260200182016040528015610e915781602001602082028036833780820191505090505b50905060005b82811015610edb57610ea98582610a28565b828281518110610ebc57610ebb613755565b5b6020026020010181815250508080610ed39061370c565b915050610e97565b508092505050919050565b610eee611852565b73ffffffffffffffffffffffffffffffffffffffff16610f0c611265565b73ffffffffffffffffffffffffffffffffffffffff1614610f62576040517f08c379a0000000000000000000000000000000000000000000000000000000008152600401610f599061358f565b60405180910390fd5b80600f8190555050565b6000610f76611e5e565b8210610fb7576040517f08c379a0000000000000000000000000000000000000000000000000000000008152600401610fae906137f6565b60405180910390fd5b60088281548110610fcb57610fca613755565b5b90600052602060002001549050919050565b610fe5611852565b73ffffffffffffffffffffffffffffffffffffffff16611003611265565b73ffffffffffffffffffffffffffffffffffffffff1614611059576040517f08c379a00000000000000000000000000000000000000000000000000000000081526004016110509061358f565b60405180910390fd5b80600d908051906020019061106f929190612926565b5050565b6000806002600084815260200190815260200160002060009054906101000a900473ffffffffffffffffffffffffffffffffffffffff169050600073ffffffffffffffffffffffffffffffffffffffff168173ffffffffffffffffffffffffffffffffffffffff16141561111c576040517f08c379a000000000000000000000000000000000000000000000000000000000815260040161111390613888565b60405180910390fd5b80915050919050565b60008073ffffffffffffffffffffffffffffffffffffffff168273ffffffffffffffffffffffffffffffffffffffff161415611196576040517f08c379a000000000000000000000000000000000000000000000000000000000815260040161118d9061391a565b60405180910390fd5b600360008373ffffffffffffffffffffffffffffffffffffffff1673ffffffffffffffffffffffffffffffffffffffff168152602001908152602001600020549050919050565b6111e5611852565b73ffffffffffffffffffffffffffffffffffffffff16611203611265565b73ffffffffffffffffffffffffffffffffffffffff1614611259576040517f08c379a00000000000000000000000000000000000000000000000000000000081526004016112509061358f565b60405180910390fd5b6112636000611e6b565b565b6000600a60009054906101000a900473ffffffffffffffffffffffffffffffffffffffff16905090565b60606001805461129e90613185565b80601f01602080910402602001604051908101604052809291908181526020018280546112ca90613185565b80156113175780601f106112ec57610100808354040283529160200191611317565b820191906000526020600020905b8154815290600101906020018083116112fa57829003601f168201915b5050505050905090565b61133361132c611852565b8383611f31565b5050565b611348611342611852565b83611913565b611387576040517f08c379a000000000000000000000000000000000000000000000000000000000815260040161137e906133df565b60405180910390fd5b6113938484848461209e565b50505050565b600e80546113a690613185565b80601f01602080910402602001604051908101604052809291908181526020018280546113d290613185565b801561141f5780601f106113f45761010080835404028352916020019161141f565b820191906000526020600020905b81548152906001019060200180831161140257829003601f168201915b505050505081565b6060611432826117e6565b611471576040517f08c379a0000000000000000000000000000000000000000000000000000000008152600401611468906139ac565b60405180910390fd5b600061147b6120fa565b9050600081511161149b57604051806020016040528060008152506114c9565b806114a58461218c565b600e6040516020016114b993929190613a9c565b6040516020818303038152906040525b915050919050565b600068027e60d44813f80000905090565b6114ea611852565b73ffffffffffffffffffffffffffffffffffffffff16611508611265565b73ffffffffffffffffffffffffffffffffffffffff161461155e576040517f08c379a00000000000000000000000000000000000000000000000000000000081526004016115559061358f565b60405180910390fd5b80600e9080519060200190611574929190612926565b5050565b6000600560008473ffffffffffffffffffffffffffffffffffffffff1673ffffffffffffffffffffffffffffffffffffffff16815260200190815260200160002060008373ffffffffffffffffffffffffffffffffffffffff1673ffffffffffffffffffffffffffffffffffffffff16815260200190815260200160002060009054906101000a900460ff16905092915050565b611614611852565b73ffffffffffffffffffffffffffffffffffffffff16611632611265565b73ffffffffffffffffffffffffffffffffffffffff1614611688576040517f08c379a000000000000000000000000000000000000000000000000000000000815260040161167f9061358f565b60405180910390fd5b600073ffffffffffffffffffffffffffffffffffffffff168173ffffffffffffffffffffffffffffffffffffffff1614156116f8576040517f08c379a00000000000000000000000000000000000000000000000000000000081526004016116ef90613b3f565b60405180910390fd5b61170181611e6b565b50565b60007f80ac58cd000000000000000000000000000000000000000000000000000000007bffffffffffffffffffffffffffffffffffffffffffffffffffffffff1916827bffffffffffffffffffffffffffffffffffffffffffffffffffffffff191614806117cf57507f5b5e139f000000000000000000000000000000000000000000000000000000007bffffffffffffffffffffffffffffffffffffffffffffffffffffffff1916827bffffffffffffffffffffffffffffffffffffffffffffffffffffffff1916145b806117df57506117de826122ed565b5b9050919050565b60008073ffffffffffffffffffffffffffffffffffffffff166002600084815260200190815260200160002060009054906101000a900473ffffffffffffffffffffffffffffffffffffffff1673ffffffffffffffffffffffffffffffffffffffff1614159050919050565b600033905090565b816004600083815260200190815260200160002060006101000a81548173ffffffffffffffffffffffffffffffffffffffff021916908373ffffffffffffffffffffffffffffffffffffffff160217905550808273ffffffffffffffffffffffffffffffffffffffff166118cd83611073565b73ffffffffffffffffffffffffffffffffffffffff167f8c5be1e5ebec7d5bd14f71427d1e84f3dd0314c0f7b2291e5b200ac8c7c3b92560405160405180910390a45050565b600061191e826117e6565b61195d576040517f08c379a000000000000000000000000000000000000000000000000000000000815260040161195490613bd1565b60405180910390fd5b600061196883611073565b90508073ffffffffffffffffffffffffffffffffffffffff168473ffffffffffffffffffffffffffffffffffffffff1614806119d757508373ffffffffffffffffffffffffffffffffffffffff166119bf8461080b565b73ffffffffffffffffffffffffffffffffffffffff16145b806119e857506119e78185611578565b5b91505092915050565b8273ffffffffffffffffffffffffffffffffffffffff16611a1182611073565b73ffffffffffffffffffffffffffffffffffffffff1614611a67576040517f08c379a0000000000000000000000000000000000000000000000000000000008152600401611a5e90613c63565b60405180910390fd5b600073ffffffffffffffffffffffffffffffffffffffff168273ffffffffffffffffffffffffffffffffffffffff161415611ad7576040517f08c379a0000000000000000000000000000000000000000000000000000000008152600401611ace90613cf5565b60405180910390fd5b611ae2838383612357565b611aed60008261185a565b6001600360008573ffffffffffffffffffffffffffffffffffffffff1673ffffffffffffffffffffffffffffffffffffffff1681526020019081526020016000206000828254611b3d9190613d15565b925050819055506001600360008473ffffffffffffffffffffffffffffffffffffffff1673ffffffffffffffffffffffffffffffffffffffff1681526020019081526020016000206000828254611b94919061364a565b92505081905550816002600083815260200190815260200160002060006101000a81548173ffffffffffffffffffffffffffffffffffffffff021916908373ffffffffffffffffffffffffffffffffffffffff160217905550808273ffffffffffffffffffffffffffffffffffffffff168473ffffffffffffffffffffffffffffffffffffffff167fddf252ad1be2c89b69c2b068fc378daa952ba7f163c4a11628f55a4df523b3ef60405160405180910390a4611c5383838361246b565b505050565b6001816000016000828254019250508190555050565b60008183611c7c919061364a565b905092915050565b600073ffffffffffffffffffffffffffffffffffffffff168273ffffffffffffffffffffffffffffffffffffffff161415611cf4576040517f08c379a0000000000000000000000000000000000000000000000000000000008152600401611ceb90613d95565b60405180910390fd5b611cfd816117e6565b15611d3d576040517f08c379a0000000000000000000000000000000000000000000000000000000008152600401611d3490613e01565b60405180910390fd5b611d4960008383612357565b6001600360008473ffffffffffffffffffffffffffffffffffffffff1673ffffffffffffffffffffffffffffffffffffffff1681526020019081526020016000206000828254611d99919061364a565b92505081905550816002600083815260200190815260200160002060006101000a81548173ffffffffffffffffffffffffffffffffffffffff021916908373ffffffffffffffffffffffffffffffffffffffff160217905550808273ffffffffffffffffffffffffffffffffffffffff16600073ffffffffffffffffffffffffffffffffffffffff167fddf252ad1be2c89b69c2b068fc378daa952ba7f163c4a11628f55a4df523b3ef60405160405180910390a4611e5a6000838361246b565b5050565b6000600880549050905090565b6000600a60009054906101000a900473ffffffffffffffffffffffffffffffffffffffff16905081600a60006101000a81548173ffffffffffffffffffffffffffffffffffffffff021916908373ffffffffffffffffffffffffffffffffffffffff1602179055508173ffffffffffffffffffffffffffffffffffffffff168173ffffffffffffffffffffffffffffffffffffffff167f8be0079c531659141344cd1fd0a4f28419497f9722a3daafe3b4186f6b6457e060405160405180910390a35050565b8173ffffffffffffffffffffffffffffffffffffffff168373ffffffffffffffffffffffffffffffffffffffff161415611fa0576040517f08c379a0000000000000000000000000000000000000000000000000000000008152600401611f9790613e6d565b60405180910390fd5b80600560008573ffffffffffffffffffffffffffffffffffffffff1673ffffffffffffffffffffffffffffffffffffffff16815260200190815260200160002060008473ffffffffffffffffffffffffffffffffffffffff1673ffffffffffffffffffffffffffffffffffffffff16815260200190815260200160002060006101000a81548160ff0219169083151502179055508173ffffffffffffffffffffffffffffffffffffffff168373ffffffffffffffffffffffffffffffffffffffff167f17307eab39ab6107e8899845ad3d59bd9653f200f220920489ca2b5937696c31836040516120919190612a7d565b60405180910390a3505050565b6120a98484846119f1565b6120b584848484612470565b6120f4576040517f08c379a00000000000000000000000000000000000000000000000000000000081526004016120eb90613eff565b60405180910390fd5b50505050565b6060600d805461210990613185565b80601f016020809104026020016040519081016040528092919081815260200182805461213590613185565b80156121825780601f1061215757610100808354040283529160200191612182565b820191906000526020600020905b81548152906001019060200180831161216557829003601f168201915b5050505050905090565b606060008214156121d4576040518060400160405280600181526020017f300000000000000000000000000000000000000000000000000000000000000081525090506122e8565b600082905060005b600082146122065780806121ef9061370c565b915050600a826121ff9190613f4e565b91506121dc565b60008167ffffffffffffffff81111561222257612221612e12565b5b6040519080825280601f01601f1916602001820160405280156122545781602001600182028036833780820191505090505b5090505b600085146122e15760018261226d9190613d15565b9150600a8561227c9190613f7f565b6030612288919061364a565b60f81b81838151811061229e5761229d613755565b5b60200101907effffffffffffffffffffffffffffffffffffffffffffffffffffffffffffff1916908160001a905350600a856122da9190613f4e565b9450612258565b8093505050505b919050565b60007f01ffc9a7000000000000000000000000000000000000000000000000000000007bffffffffffffffffffffffffffffffffffffffffffffffffffffffff1916827bffffffffffffffffffffffffffffffffffffffffffffffffffffffff1916149050919050565b6123628383836125f8565b600073ffffffffffffffffffffffffffffffffffffffff168373ffffffffffffffffffffffffffffffffffffffff1614156123a5576123a0816125fd565b6123e4565b8173ffffffffffffffffffffffffffffffffffffffff168373ffffffffffffffffffffffffffffffffffffffff16146123e3576123e28382612646565b5b5b600073ffffffffffffffffffffffffffffffffffffffff168273ffffffffffffffffffffffffffffffffffffffff16141561242757612422816127b3565b612466565b8273ffffffffffffffffffffffffffffffffffffffff168273ffffffffffffffffffffffffffffffffffffffff1614612465576124648282612884565b5b5b505050565b505050565b60006124918473ffffffffffffffffffffffffffffffffffffffff16612903565b156125eb578373ffffffffffffffffffffffffffffffffffffffff1663150b7a026124ba611852565b8786866040518563ffffffff1660e01b81526004016124dc9493929190614005565b6020604051808303816000875af192505050801561251857506040513d601f19601f820116820180604052508101906125159190614066565b60015b61259b573d8060008114612548576040519150601f19603f3d011682016040523d82523d6000602084013e61254d565b606091505b50600081511415612593576040517f08c379a000000000000000000000000000000000000000000000000000000000815260040161258a90613eff565b60405180910390fd5b805181602001fd5b63150b7a0260e01b7bffffffffffffffffffffffffffffffffffffffffffffffffffffffff1916817bffffffffffffffffffffffffffffffffffffffffffffffffffffffff1916149150506125f0565b600190505b949350505050565b505050565b6008805490506009600083815260200190815260200160002081905550600881908060018154018082558091505060019003906000526020600020016000909190919091505550565b6000600161265384611125565b61265d9190613d15565b9050600060076000848152602001908152602001600020549050818114612742576000600660008673ffffffffffffffffffffffffffffffffffffffff1673ffffffffffffffffffffffffffffffffffffffff168152602001908152602001600020600084815260200190815260200160002054905080600660008773ffffffffffffffffffffffffffffffffffffffff1673ffffffffffffffffffffffffffffffffffffffff168152602001908152602001600020600084815260200190815260200160002081905550816007600083815260200190815260200160002081905550505b6007600084815260200190815260200160002060009055600660008573ffffffffffffffffffffffffffffffffffffffff1673ffffffffffffffffffffffffffffffffffffffff16815260200190815260200160002060008381526020019081526020016000206000905550505050565b600060016008805490506127c79190613d15565b90506000600960008481526020019081526020016000205490506000600883815481106127f7576127f6613755565b5b90600052602060002001549050806008838154811061281957612818613755565b5b90600052602060002001819055508160096000838152602001908152602001600020819055506009600085815260200190815260200160002060009055600880548061286857612867614093565b5b6001900381819060005260206000200160009055905550505050565b600061288f83611125565b905081600660008573ffffffffffffffffffffffffffffffffffffffff1673ffffffffffffffffffffffffffffffffffffffff168152602001908152602001600020600083815260200190815260200160002081905550806007600084815260200190815260200160002081905550505050565b6000808273ffffffffffffffffffffffffffffffffffffffff163b119050919050565b82805461293290613185565b90600052602060002090601f016020900481019282612954576000855561299b565b82601f1061296d57805160ff191683800117855561299b565b8280016001018555821561299b579182015b8281111561299a57825182559160200191906001019061297f565b5b5090506129a891906129ac565b5090565b5b808211156129c55760008160009055506001016129ad565b5090565b6000604051905090565b600080fd5b600080fd5b60007fffffffff0000000000000000000000000000000000000000000000000000000082169050919050565b612a12816129dd565b8114612a1d57600080fd5b50565b600081359050612a2f81612a09565b92915050565b600060208284031215612a4b57612a4a6129d3565b5b6000612a5984828501612a20565b91505092915050565b60008115159050919050565b612a7781612a62565b82525050565b6000602082019050612a926000830184612a6e565b92915050565b600081519050919050565b600082825260208201905092915050565b60005b83811015612ad2578082015181840152602081019050612ab7565b83811115612ae1576000848401525b50505050565b6000601f19601f8301169050919050565b6000612b0382612a98565b612b0d8185612aa3565b9350612b1d818560208601612ab4565b612b2681612ae7565b840191505092915050565b60006020820190508181036000830152612b4b8184612af8565b905092915050565b6000819050919050565b612b6681612b53565b8114612b7157600080fd5b50565b600081359050612b8381612b5d565b92915050565b600060208284031215612b9f57612b9e6129d3565b5b6000612bad84828501612b74565b91505092915050565b600073ffffffffffffffffffffffffffffffffffffffff82169050919050565b6000612be182612bb6565b9050919050565b612bf181612bd6565b82525050565b6000602082019050612c0c6000830184612be8565b92915050565b612c1b81612bd6565b8114612c2657600080fd5b50565b600081359050612c3881612c12565b92915050565b60008060408385031215612c5557612c546129d3565b5b6000612c6385828601612c29565b9250506020612c7485828601612b74565b9150509250929050565b612c8781612b53565b82525050565b6000602082019050612ca26000830184612c7e565b92915050565b600080600060608486031215612cc157612cc06129d3565b5b6000612ccf86828701612c29565b9350506020612ce086828701612c29565b9250506040612cf186828701612b74565b9150509250925092565b600060208284031215612d1157612d106129d3565b5b6000612d1f84828501612c29565b91505092915050565b600081519050919050565b600082825260208201905092915050565b6000819050602082019050919050565b612d5d81612b53565b82525050565b6000612d6f8383612d54565b60208301905092915050565b6000602082019050919050565b6000612d9382612d28565b612d9d8185612d33565b9350612da883612d44565b8060005b83811015612dd9578151612dc08882612d63565b9750612dcb83612d7b565b925050600181019050612dac565b5085935050505092915050565b60006020820190508181036000830152612e008184612d88565b905092915050565b600080fd5b600080fd5b7f4e487b7100000000000000000000000000000000000000000000000000000000600052604160045260246000fd5b612e4a82612ae7565b810181811067ffffffffffffffff82111715612e6957612e68612e12565b5b80604052505050565b6000612e7c6129c9565b9050612e888282612e41565b919050565b600067ffffffffffffffff821115612ea857612ea7612e12565b5b612eb182612ae7565b9050602081019050919050565b82818337600083830152505050565b6000612ee0612edb84612e8d565b612e72565b905082815260208101848484011115612efc57612efb612e0d565b5b612f07848285612ebe565b509392505050565b600082601f830112612f2457612f23612e08565b5b8135612f34848260208601612ecd565b91505092915050565b600060208284031215612f5357612f526129d3565b5b600082013567ffffffffffffffff811115612f7157612f706129d8565b5b612f7d84828501612f0f565b91505092915050565b612f8f81612a62565b8114612f9a57600080fd5b50565b600081359050612fac81612f86565b92915050565b60008060408385031215612fc957612fc86129d3565b5b6000612fd785828601612c29565b9250506020612fe885828601612f9d565b9150509250929050565b600067ffffffffffffffff82111561300d5761300c612e12565b5b61301682612ae7565b9050602081019050919050565b600061303661303184612ff2565b612e72565b90508281526020810184848401111561305257613051612e0d565b5b61305d848285612ebe565b509392505050565b600082601f83011261307a57613079612e08565b5b813561308a848260208601613023565b91505092915050565b600080600080608085870312156130ad576130ac6129d3565b5b60006130bb87828801612c29565b94505060206130cc87828801612c29565b93505060406130dd87828801612b74565b925050606085013567ffffffffffffffff8111156130fe576130fd6129d8565b5b61310a87828801613065565b91505092959194509250565b6000806040838503121561312d5761312c6129d3565b5b600061313b85828601612c29565b925050602061314c85828601612c29565b9150509250929050565b7f4e487b7100000000000000000000000000000000000000000000000000000000600052602260045260246000fd5b6000600282049050600182168061319d57607f821691505b602082108114156131b1576131b0613156565b5b50919050565b7f4552433732313a20617070726f76656420717565727920666f72206e6f6e657860008201527f697374656e7420746f6b656e0000000000000000000000000000000000000000602082015250565b6000613213602c83612aa3565b915061321e826131b7565b604082019050919050565b6000602082019050818103600083015261324281613206565b9050919050565b7f4552433732313a20617070726f76616c20746f2063757272656e74206f776e6560008201527f7200000000000000000000000000000000000000000000000000000000000000602082015250565b60006132a5602183612aa3565b91506132b082613249565b604082019050919050565b600060208201905081810360008301526132d481613298565b9050919050565b7f4552433732313a20617070726f76652063616c6c6572206973206e6f74206f7760008201527f6e6572206e6f7220617070726f76656420666f7220616c6c0000000000000000602082015250565b6000613337603883612aa3565b9150613342826132db565b604082019050919050565b600060208201905081810360008301526133668161332a565b9050919050565b7f4552433732313a207472616e736665722063616c6c6572206973206e6f74206f60008201527f776e6572206e6f7220617070726f766564000000000000000000000000000000602082015250565b60006133c9603183612aa3565b91506133d48261336d565b604082019050919050565b600060208201905081810360008301526133f8816133bc565b9050919050565b7f455243373231456e756d657261626c653a206f776e657220696e646578206f7560008201527f74206f6620626f756e6473000000000000000000000000000000000000000000602082015250565b600061345b602b83612aa3565b9150613466826133ff565b604082019050919050565b6000602082019050818103600083015261348a8161344e565b9050919050565b7f5265656e7472616e637947756172643a207265656e7472616e742063616c6c00600082015250565b60006134c7601f83612aa3565b91506134d282613491565b602082019050919050565b600060208201905081810360008301526134f6816134ba565b9050919050565b600081905092915050565b50565b60006135186000836134fd565b915061352382613508565b600082019050919050565b60006135398261350b565b9150819050919050565b7f4f776e61626c653a2063616c6c6572206973206e6f7420746865206f776e6572600082015250565b6000613579602083612aa3565b915061358482613543565b602082019050919050565b600060208201905081810360008301526135a88161356c565b9050919050565b7f4e6f7420656e6f7567682066756e647320746f206d696e740000000000000000600082015250565b60006135e5601883612aa3565b91506135f0826135af565b602082019050919050565b60006020820190508181036000830152613614816135d8565b9050919050565b7f4e487b7100000000000000000000000000000000000000000000000000000000600052601160045260246000fd5b600061365582612b53565b915061366083612b53565b9250827fffffffffffffffffffffffffffffffffffffffffffffffffffffffffffffffff038211156136955761369461361b565b5b828201905092915050565b7f4d6178696d756d20737570706c79207265616368656400000000000000000000600082015250565b60006136d6601683612aa3565b91506136e1826136a0565b602082019050919050565b60006020820190508181036000830152613705816136c9565b9050919050565b600061371782612b53565b91507fffffffffffffffffffffffffffffffffffffffffffffffffffffffffffffffff82141561374a5761374961361b565b5b600182019050919050565b7f4e487b7100000000000000000000000000000000000000000000000000000000600052603260045260246000fd5b7f455243373231456e756d657261626c653a20676c6f62616c20696e646578206f60008201527f7574206f6620626f756e64730000000000000000000000000000000000000000602082015250565b60006137e0602c83612aa3565b91506137eb82613784565b604082019050919050565b6000602082019050818103600083015261380f816137d3565b9050919050565b7f4552433732313a206f776e657220717565727920666f72206e6f6e657869737460008201527f656e7420746f6b656e0000000000000000000000000000000000000000000000602082015250565b6000613872602983612aa3565b915061387d82613816565b604082019050919050565b600060208201905081810360008301526138a181613865565b9050919050565b7f4552433732313a2062616c616e636520717565727920666f7220746865207a6560008201527f726f206164647265737300000000000000000000000000000000000000000000602082015250565b6000613904602a83612aa3565b915061390f826138a8565b604082019050919050565b60006020820190508181036000830152613933816138f7565b9050919050565b7f4552433732314d657461646174613a2055524920717565727920666f72206e6f60008201527f6e6578697374656e7420746f6b656e0000000000000000000000000000000000602082015250565b6000613996602f83612aa3565b91506139a18261393a565b604082019050919050565b600060208201905081810360008301526139c581613989565b9050919050565b600081905092915050565b60006139e282612a98565b6139ec81856139cc565b93506139fc818560208601612ab4565b80840191505092915050565b60008190508160005260206000209050919050565b60008154613a2a81613185565b613a3481866139cc565b94506001821660008114613a4f5760018114613a6057613a93565b60ff19831686528186019350613a93565b613a6985613a08565b60005b83811015613a8b57815481890152600182019150602081019050613a6c565b838801955050505b50505092915050565b6000613aa882866139d7565b9150613ab482856139d7565b9150613ac08284613a1d565b9150819050949350505050565b7f4f776e61626c653a206e6577206f776e657220697320746865207a65726f206160008201527f6464726573730000000000000000000000000000000000000000000000000000602082015250565b6000613b29602683612aa3565b9150613b3482613acd565b604082019050919050565b60006020820190508181036000830152613b5881613b1c565b9050919050565b7f4552433732313a206f70657261746f7220717565727920666f72206e6f6e657860008201527f697374656e7420746f6b656e0000000000000000000000000000000000000000602082015250565b6000613bbb602c83612aa3565b9150613bc682613b5f565b604082019050919050565b60006020820190508181036000830152613bea81613bae565b9050919050565b7f4552433732313a207472616e736665722066726f6d20696e636f72726563742060008201527f6f776e6572000000000000000000000000000000000000000000000000000000602082015250565b6000613c4d602583612aa3565b9150613c5882613bf1565b604082019050919050565b60006020820190508181036000830152613c7c81613c40565b9050919050565b7f4552433732313a207472616e7366657220746f20746865207a65726f2061646460008201527f7265737300000000000000000000000000000000000000000000000000000000602082015250565b6000613cdf602483612aa3565b9150613cea82613c83565b604082019050919050565b60006020820190508181036000830152613d0e81613cd2565b9050919050565b6000613d2082612b53565b9150613d2b83612b53565b925082821015613d3e57613d3d61361b565b5b828203905092915050565b7f4552433732313a206d696e7420746f20746865207a65726f2061646472657373600082015250565b6000613d7f602083612aa3565b9150613d8a82613d49565b602082019050919050565b60006020820190508181036000830152613dae81613d72565b9050919050565b7f4552433732313a20746f6b656e20616c7265616479206d696e74656400000000600082015250565b6000613deb601c83612aa3565b9150613df682613db5565b602082019050919050565b60006020820190508181036000830152613e1a81613dde565b9050919050565b7f4552433732313a20617070726f766520746f2063616c6c657200000000000000600082015250565b6000613e57601983612aa3565b9150613e6282613e21565b602082019050919050565b60006020820190508181036000830152613e8681613e4a565b9050919050565b7f4552433732313a207472616e7366657220746f206e6f6e20455243373231526560008201527f63656976657220696d706c656d656e7465720000000000000000000000000000602082015250565b6000613ee9603283612aa3565b9150613ef482613e8d565b604082019050919050565b60006020820190508181036000830152613f1881613edc565b9050919050565b7f4e487b7100000000000000000000000000000000000000000000000000000000600052601260045260246000fd5b6000613f5982612b53565b9150613f6483612b53565b925082613f7457613f73613f1f565b5b828204905092915050565b6000613f8a82612b53565b9150613f9583612b53565b925082613fa557613fa4613f1f565b5b828206905092915050565b600081519050919050565b600082825260208201905092915050565b6000613fd782613fb0565b613fe18185613fbb565b9350613ff1818560208601612ab4565b613ffa81612ae7565b840191505092915050565b600060808201905061401a6000830187612be8565b6140276020830186612be8565b6140346040830185612c7e565b81810360608301526140468184613fcc565b905095945050505050565b60008151905061406081612a09565b92915050565b60006020828403121561407c5761407b6129d3565b5b600061408a84828501614051565b91505092915050565b7f4e487b7100000000000000000000000000000000000000000000000000000000600052603160045260246000fdfea26469706673582212207512b44e9c156f087b147cc5f2215efb5d8d8e54fed977e743668aa8eeb287f064736f6c634300080b0033",
  "linkReferences": {},
  "deployedLinkReferences": {}
}