{
  "_format": "hh-sol-artifact-1",
  "contractName": "NFTStaker",
  "sourceName": "contracts/NFTStaker.sol",
  "abi": [
    {
      "inputs": [
        {
          "internalType": "contract NFTCollection",
          "name": "_nft",
          "type": "address"
        },
        {
          "internalType": "contract NFTReward",
          "name": "_token",
          "type": "address"
        }
      ],
      "stateMutability": "nonpayable",
      "type": "constructor"
    },
    {
      "anonymous": false,
      "inputs": [
        {
          "indexed": false,
          "internalType": "address",
          "name": "owner",
          "type": "address"
        },
        {
          "indexed": false,
          "internalType": "uint256",
          "name": "amount",
          "type": "uint256"
        }
      ],
      "name": "NFTClaimed",
      "type": "event"
    },
    {
      "anonymous": false,
      "inputs": [
        {
          "indexed": false,
          "internalType": "uint256",
          "name": "tokenId",
          "type": "uint256"
        },
        {
          "indexed": false,
          "internalType": "uint256",
          "name": "timestamp",
          "type": "uint256"
        },
        {
          "indexed": false,
          "internalType": "address",
          "name": "owner",
          "type": "address"
        }
      ],
      "name": "NFTStaked",
      "type": "event"
    },
    {
      "anonymous": false,
      "inputs": [
        {
          "indexed": false,
          "internalType": "uint256",
          "name": "tokenId",
          "type": "uint256"
        },
        {
          "indexed": false,
          "internalType": "uint256",
          "name": "timestamp",
          "type": "uint256"
        },
        {
          "indexed": false,
          "internalType": "address",
          "name": "owner",
          "type": "address"
        }
      ],
      "name": "NFTUnStaked",
      "type": "event"
    },
    {
      "anonymous": false,
      "inputs": [
        {
          "indexed": true,
          "internalType": "address",
          "name": "previousOwner",
          "type": "address"
        },
        {
          "indexed": true,
          "internalType": "address",
          "name": "newOwner",
          "type": "address"
        }
      ],
      "name": "OwnershipTransferred",
      "type": "event"
    },
    {
      "inputs": [
        {
          "internalType": "address",
          "name": "account",
          "type": "address"
        }
      ],
      "name": "balanceOf",
      "outputs": [
        {
          "internalType": "uint256",
          "name": "_balance",
          "type": "uint256"
        }
      ],
      "stateMutability": "view",
      "type": "function"
    },
    {
      "inputs": [
        {
          "internalType": "address",
          "name": "",
          "type": "address"
        }
      ],
      "name": "claimed",
      "outputs": [
        {
          "internalType": "uint256",
          "name": "",
          "type": "uint256"
        }
      ],
      "stateMutability": "view",
      "type": "function"
    },
    {
      "inputs": [
        {
          "internalType": "uint256[]",
          "name": "tokenIds",
          "type": "uint256[]"
        }
      ],
      "name": "earningInfo",
      "outputs": [
        {
          "internalType": "uint256[2]",
          "name": "info",
          "type": "uint256[2]"
        }
      ],
      "stateMutability": "view",
      "type": "function"
    },
    {
      "inputs": [
        {
          "internalType": "address",
          "name": "",
          "type": "address"
        },
        {
          "internalType": "address",
          "name": "",
          "type": "address"
        },
        {
          "internalType": "uint256",
          "name": "",
          "type": "uint256"
        },
        {
          "internalType": "bytes",
          "name": "",
          "type": "bytes"
        }
      ],
      "name": "onERC721Received",
      "outputs": [
        {
          "internalType": "bytes4",
          "name": "",
          "type": "bytes4"
        }
      ],
      "stateMutability": "pure",
      "type": "function"
    },
    {
      "inputs": [],
      "name": "owner",
      "outputs": [
        {
          "internalType": "address",
          "name": "",
          "type": "address"
        }
      ],
      "stateMutability": "view",
      "type": "function"
    },
    {
      "inputs": [],
      "name": "renounceOwnership",
      "outputs": [],
      "stateMutability": "nonpayable",
      "type": "function"
    },
    {
      "inputs": [
        {
          "internalType": "uint256[]",
          "name": "tokenIds",
          "type": "uint256[]"
        }
      ],
      "name": "stake",
      "outputs": [],
      "stateMutability": "nonpayable",
      "type": "function"
    },
    {
      "inputs": [
        {
          "internalType": "address",
          "name": "account",
          "type": "address"
        }
      ],
      "name": "tokensOfOwner",
      "outputs": [
        {
          "internalType": "uint256[]",
          "name": "ownerTokens",
          "type": "uint256[]"
        }
      ],
      "stateMutability": "view",
      "type": "function"
    },
    {
      "inputs": [
        {
          "internalType": "address",
          "name": "",
          "type": "address"
        }
      ],
      "name": "totalStaked",
      "outputs": [
        {
          "internalType": "uint256",
          "name": "",
          "type": "uint256"
        }
      ],
      "stateMutability": "view",
      "type": "function"
    },
    {
      "inputs": [
        {
          "internalType": "address",
          "name": "newOwner",
          "type": "address"
        }
      ],
      "name": "transferOwnership",
      "outputs": [],
      "stateMutability": "nonpayable",
      "type": "function"
    },
    {
      "inputs": [
        {
          "internalType": "uint256",
          "name": "",
          "type": "uint256"
        }
      ],
      "name": "vault",
      "outputs": [
        {
          "internalType": "uint24",
          "name": "tokenId",
          "type": "uint24"
        },
        {
          "internalType": "uint48",
          "name": "timestamp",
          "type": "uint48"
        },
        {
          "internalType": "address",
          "name": "owner",
          "type": "address"
        }
      ],
      "stateMutability": "view",
      "type": "function"
    }
  ],
  "bytecode": "0x60806040523480156200001157600080fd5b5060405162001bb138038062001bb1833981810160405281019062000037919062000270565b620000576200004b620000e160201b60201c565b620000e960201b60201c565b81600160006101000a81548173ffffffffffffffffffffffffffffffffffffffff021916908373ffffffffffffffffffffffffffffffffffffffff16021790555080600260006101000a81548173ffffffffffffffffffffffffffffffffffffffff021916908373ffffffffffffffffffffffffffffffffffffffff1602179055505050620002b7565b600033905090565b60008060009054906101000a900473ffffffffffffffffffffffffffffffffffffffff169050816000806101000a81548173ffffffffffffffffffffffffffffffffffffffff021916908373ffffffffffffffffffffffffffffffffffffffff1602179055508173ffffffffffffffffffffffffffffffffffffffff168173ffffffffffffffffffffffffffffffffffffffff167f8be0079c531659141344cd1fd0a4f28419497f9722a3daafe3b4186f6b6457e060405160405180910390a35050565b600080fd5b600073ffffffffffffffffffffffffffffffffffffffff82169050919050565b6000620001df82620001b2565b9050919050565b6000620001f382620001d2565b9050919050565b6200020581620001e6565b81146200021157600080fd5b50565b6000815190506200022581620001fa565b92915050565b60006200023882620001d2565b9050919050565b6200024a816200022b565b81146200025657600080fd5b50565b6000815190506200026a816200023f565b92915050565b600080604083850312156200028a5762000289620001ad565b5b60006200029a8582860162000214565b9250506020620002ad8582860162000259565b9150509250929050565b6118ea80620002c76000396000f3fe608060405234801561001057600080fd5b50600436106100a95760003560e01c806381a36fb61161007157806381a36fb6146101645780638462151c146101965780638da5cb5b146101c65780639bfd8d61146101e4578063c884ef8314610214578063f2fde38b14610244576100a9565b80630fbf0a93146100ae578063150b7a02146100ca5780633562b086146100fa57806370a082311461012a578063715018a61461015a575b600080fd5b6100c860048036038101906100c39190610f09565b610260565b005b6100e460048036038101906100df9190611040565b610631565b6040516100f19190611103565b60405180910390f35b610114600480360381019061010f9190610f09565b610646565b60405161012191906111c9565b60405180910390f35b610144600480360381019061013f91906111e4565b6107b0565b6040516101519190611220565b60405180910390f35b6101626108ef565b005b61017e6004803603810190610179919061123b565b610977565b60405161018d939291906112b6565b60405180910390f35b6101b060048036038101906101ab91906111e4565b6109e2565b6040516101bd9190611384565b60405180910390f35b6101ce610c5b565b6040516101db91906113a6565b60405180910390f35b6101fe60048036038101906101f991906111e4565b610c84565b60405161020b9190611220565b60405180910390f35b61022e600480360381019061022991906111e4565b610c9c565b60405161023b9190611220565b60405180910390f35b61025e600480360381019061025991906111e4565b610cb4565b005b600082829050600360003373ffffffffffffffffffffffffffffffffffffffff1673ffffffffffffffffffffffffffffffffffffffff16815260200190815260200160002060008282546102b491906113f0565b9250508190555060005b8383905081101561062b578383828181106102dc576102db611446565b5b9050602002013591506000600160009054906101000a900473ffffffffffffffffffffffffffffffffffffffff1673ffffffffffffffffffffffffffffffffffffffff16636352211e846040518263ffffffff1660e01b81526004016103429190611220565b602060405180830381865afa15801561035f573d6000803e3d6000fd5b505050506040513d601f19601f82011682018060405250810190610383919061148a565b90503373ffffffffffffffffffffffffffffffffffffffff168173ffffffffffffffffffffffffffffffffffffffff16146103f3576040517f08c379a00000000000000000000000000000000000000000000000000000000081526004016103ea90611514565b60405180910390fd5b60006005600085815260200190815260200160002060000160009054906101000a900462ffffff1662ffffff1614610460576040517f08c379a000000000000000000000000000000000000000000000000000000000815260040161045790611580565b60405180910390fd5b600160009054906101000a900473ffffffffffffffffffffffffffffffffffffffff1673ffffffffffffffffffffffffffffffffffffffff166342842e0e3330866040518463ffffffff1660e01b81526004016104bf939291906115a0565b600060405180830381600087803b1580156104d957600080fd5b505af11580156104ed573d6000803e3d6000fd5b505050507f4b86af5a1211c34eb8651a76ce06a208c38fabaee6cd487be4eb0b49cf7c0e45834233604051610524939291906115d7565b60405180910390a160405180606001604052808462ffffff1681526020014265ffffffffffff1681526020013373ffffffffffffffffffffffffffffffffffffffff168152506005600085815260200190815260200160002060008201518160000160006101000a81548162ffffff021916908362ffffff16021790555060208201518160000160036101000a81548165ffffffffffff021916908365ffffffffffff16021790555060408201518160000160096101000a81548173ffffffffffffffffffffffffffffffffffffffff021916908373ffffffffffffffffffffffffffffffffffffffff1602179055509050505080806106239061160e565b9150506102be565b50505050565b600063150b7a0260e01b905095945050505050565b61064e610e78565b60008060009050600060019050858590508110156107a6576000600560008581526020019081526020016000206040518060600160405290816000820160009054906101000a900462ffffff1662ffffff1662ffffff1681526020016000820160039054906101000a900465ffffffffffff1665ffffffffffff1665ffffffffffff1681526020016000820160099054906101000a900473ffffffffffffffffffffffffffffffffffffffff1673ffffffffffffffffffffffffffffffffffffffff1673ffffffffffffffffffffffffffffffffffffffff168152505090506000816020015165ffffffffffff16905062015180814261074e9190611657565b600f61075a919061168b565b6107649190611714565b8461076f91906113f0565b935060006201518085610782919061168b565b905060405180604001604052808681526020018281525096505050505050506107aa565b5050505b92915050565b600080600090506000600160009054906101000a900473ffffffffffffffffffffffffffffffffffffffff1673ffffffffffffffffffffffffffffffffffffffff1663248225146040518163ffffffff1660e01b8152600401602060405180830381865afa158015610826573d6000803e3d6000fd5b505050506040513d601f19601f8201168201806040525081019061084a919061175a565b905060005b818110156108e4578473ffffffffffffffffffffffffffffffffffffffff166005600083815260200190815260200160002060000160099054906101000a900473ffffffffffffffffffffffffffffffffffffffff1673ffffffffffffffffffffffffffffffffffffffff1614156108d1576001836108ce91906113f0565b92505b80806108dc9061160e565b91505061084f565b508192505050919050565b6108f7610dac565b73ffffffffffffffffffffffffffffffffffffffff16610915610c5b565b73ffffffffffffffffffffffffffffffffffffffff161461096b576040517f08c379a0000000000000000000000000000000000000000000000000000000008152600401610962906117d3565b60405180910390fd5b6109756000610db4565b565b60056020528060005260406000206000915090508060000160009054906101000a900462ffffff16908060000160039054906101000a900465ffffffffffff16908060000160099054906101000a900473ffffffffffffffffffffffffffffffffffffffff16905083565b60606000600160009054906101000a900473ffffffffffffffffffffffffffffffffffffffff1673ffffffffffffffffffffffffffffffffffffffff1663248225146040518163ffffffff1660e01b8152600401602060405180830381865afa158015610a53573d6000803e3d6000fd5b505050506040513d601f19601f82011682018060405250810190610a77919061175a565b905060008167ffffffffffffffff811115610a9557610a946117f3565b5b604051908082528060200260200182016040528015610ac35781602001602082028036833780820191505090505b5090506000805b838111610ba8578573ffffffffffffffffffffffffffffffffffffffff166005600083815260200190815260200160002060000160099054906101000a900473ffffffffffffffffffffffffffffffffffffffff1673ffffffffffffffffffffffffffffffffffffffff161415610b95576005600082815260200190815260200160002060000160009054906101000a900462ffffff1662ffffff16838381518110610b7957610b78611446565b5b602002602001018181525050600182610b9291906113f0565b91505b8080610ba09061160e565b915050610aca565b5060008167ffffffffffffffff811115610bc557610bc46117f3565b5b604051908082528060200260200182016040528015610bf35781602001602082028036833780820191505090505b50905060005b82811015610c4e57838181518110610c1457610c13611446565b5b6020026020010151828281518110610c2f57610c2e611446565b5b6020026020010181815250508080610c469061160e565b915050610bf9565b5080945050505050919050565b60008060009054906101000a900473ffffffffffffffffffffffffffffffffffffffff16905090565b60036020528060005260406000206000915090505481565b60046020528060005260406000206000915090505481565b610cbc610dac565b73ffffffffffffffffffffffffffffffffffffffff16610cda610c5b565b73ffffffffffffffffffffffffffffffffffffffff1614610d30576040517f08c379a0000000000000000000000000000000000000000000000000000000008152600401610d27906117d3565b60405180910390fd5b600073ffffffffffffffffffffffffffffffffffffffff168173ffffffffffffffffffffffffffffffffffffffff161415610da0576040517f08c379a0000000000000000000000000000000000000000000000000000000008152600401610d9790611894565b60405180910390fd5b610da981610db4565b50565b600033905090565b60008060009054906101000a900473ffffffffffffffffffffffffffffffffffffffff169050816000806101000a81548173ffffffffffffffffffffffffffffffffffffffff021916908373ffffffffffffffffffffffffffffffffffffffff1602179055508173ffffffffffffffffffffffffffffffffffffffff168173ffffffffffffffffffffffffffffffffffffffff167f8be0079c531659141344cd1fd0a4f28419497f9722a3daafe3b4186f6b6457e060405160405180910390a35050565b6040518060400160405280600290602082028036833780820191505090505090565b600080fd5b600080fd5b600080fd5b600080fd5b600080fd5b60008083601f840112610ec957610ec8610ea4565b5b8235905067ffffffffffffffff811115610ee657610ee5610ea9565b5b602083019150836020820283011115610f0257610f01610eae565b5b9250929050565b60008060208385031215610f2057610f1f610e9a565b5b600083013567ffffffffffffffff811115610f3e57610f3d610e9f565b5b610f4a85828601610eb3565b92509250509250929050565b600073ffffffffffffffffffffffffffffffffffffffff82169050919050565b6000610f8182610f56565b9050919050565b610f9181610f76565b8114610f9c57600080fd5b50565b600081359050610fae81610f88565b92915050565b6000819050919050565b610fc781610fb4565b8114610fd257600080fd5b50565b600081359050610fe481610fbe565b92915050565b60008083601f84011261100057610fff610ea4565b5b8235905067ffffffffffffffff81111561101d5761101c610ea9565b5b60208301915083600182028301111561103957611038610eae565b5b9250929050565b60008060008060006080868803121561105c5761105b610e9a565b5b600061106a88828901610f9f565b955050602061107b88828901610f9f565b945050604061108c88828901610fd5565b935050606086013567ffffffffffffffff8111156110ad576110ac610e9f565b5b6110b988828901610fea565b92509250509295509295909350565b60007fffffffff0000000000000000000000000000000000000000000000000000000082169050919050565b6110fd816110c8565b82525050565b600060208201905061111860008301846110f4565b92915050565b600060029050919050565b600081905092915050565b6000819050919050565b61114781610fb4565b82525050565b6000611159838361113e565b60208301905092915050565b6000602082019050919050565b61117b8161111e565b6111858184611129565b925061119082611134565b8060005b838110156111c15781516111a8878261114d565b96506111b383611165565b925050600181019050611194565b505050505050565b60006040820190506111de6000830184611172565b92915050565b6000602082840312156111fa576111f9610e9a565b5b600061120884828501610f9f565b91505092915050565b61121a81610fb4565b82525050565b60006020820190506112356000830184611211565b92915050565b60006020828403121561125157611250610e9a565b5b600061125f84828501610fd5565b91505092915050565b600062ffffff82169050919050565b61128081611268565b82525050565b600065ffffffffffff82169050919050565b6112a181611286565b82525050565b6112b081610f76565b82525050565b60006060820190506112cb6000830186611277565b6112d86020830185611298565b6112e560408301846112a7565b949350505050565b600081519050919050565b600082825260208201905092915050565b6000819050602082019050919050565b6000602082019050919050565b6000611331826112ed565b61133b81856112f8565b935061134683611309565b8060005b8381101561137757815161135e888261114d565b975061136983611319565b92505060018101905061134a565b5085935050505092915050565b6000602082019050818103600083015261139e8184611326565b905092915050565b60006020820190506113bb60008301846112a7565b92915050565b7f4e487b7100000000000000000000000000000000000000000000000000000000600052601160045260246000fd5b60006113fb82610fb4565b915061140683610fb4565b9250827fffffffffffffffffffffffffffffffffffffffffffffffffffffffffffffffff0382111561143b5761143a6113c1565b5b828201905092915050565b7f4e487b7100000000000000000000000000000000000000000000000000000000600052603260045260246000fd5b60008151905061148481610f88565b92915050565b6000602082840312156114a05761149f610e9a565b5b60006114ae84828501611475565b91505092915050565b600082825260208201905092915050565b7f4572726f723a204e6f7420796f757220746f6b656e0000000000000000000000600082015250565b60006114fe6015836114b7565b9150611509826114c8565b602082019050919050565b6000602082019050818103600083015261152d816114f1565b9050919050565b7f4572726f723a20546f6b656e20616c7265616479207374616b65640000000000600082015250565b600061156a601b836114b7565b915061157582611534565b602082019050919050565b600060208201905081810360008301526115998161155d565b9050919050565b60006060820190506115b560008301866112a7565b6115c260208301856112a7565b6115cf6040830184611211565b949350505050565b60006060820190506115ec6000830186611211565b6115f96020830185611211565b61160660408301846112a7565b949350505050565b600061161982610fb4565b91507fffffffffffffffffffffffffffffffffffffffffffffffffffffffffffffffff82141561164c5761164b6113c1565b5b600182019050919050565b600061166282610fb4565b915061166d83610fb4565b9250828210156116805761167f6113c1565b5b828203905092915050565b600061169682610fb4565b91506116a183610fb4565b9250817fffffffffffffffffffffffffffffffffffffffffffffffffffffffffffffffff04831182151516156116da576116d96113c1565b5b828202905092915050565b7f4e487b7100000000000000000000000000000000000000000000000000000000600052601260045260246000fd5b600061171f82610fb4565b915061172a83610fb4565b92508261173a576117396116e5565b5b828204905092915050565b60008151905061175481610fbe565b92915050565b6000602082840312156117705761176f610e9a565b5b600061177e84828501611745565b91505092915050565b7f4f776e61626c653a2063616c6c6572206973206e6f7420746865206f776e6572600082015250565b60006117bd6020836114b7565b91506117c882611787565b602082019050919050565b600060208201905081810360008301526117ec816117b0565b9050919050565b7f4e487b7100000000000000000000000000000000000000000000000000000000600052604160045260246000fd5b7f4f776e61626c653a206e6577206f776e657220697320746865207a65726f206160008201527f6464726573730000000000000000000000000000000000000000000000000000602082015250565b600061187e6026836114b7565b915061188982611822565b604082019050919050565b600060208201905081810360008301526118ad81611871565b905091905056fea264697066735822122067e316316ef63a51fe1e044a359f7f4b87ffc9ac6cda78b0af7ef9aaabf0c50364736f6c634300080b0033",
  "linkReferences": {},
  "deployedLinkReferences": {}
}